{
  "transactions": [
    {
      "hash": "0x391fb612e2ec6a84b7a794568506a283e366d5551d39897610bbff019b5b0c9e",
      "transactionType": "CALL",
      "contractName": null,
      "contractAddress": "0x5eff990c0a24a5f384119808398d1a64ce4bc537",
      "function": "approve(address,uint256)",
      "arguments": [
        "0x000000000022D473030F116dDEE9F6B43aC78BA3",
        "115792089237316195423570985008687907853269984665640564039457584007913129639935"
      ],
      "transaction": {
        "from": "0x6122db054706cd0ff66301f5afc5d121644d0997",
        "to": "0x5eff990c0a24a5f384119808398d1a64ce4bc537",
        "gas": "0x898b",
        "value": "0x0",
        "input": "0x095ea7b3000000000000000000000000000000000022d473030f116ddee9f6b43ac78ba3ffffffffffffffffffffffffffffffffffffffffffffffffffffffffffffffff",
        "nonce": "0x1b",
        "chainId": "0x66eee"
      },
      "additionalContracts": [],
      "isFixedGasLimit": false
    },
    {
      "hash": "0xdd784ed84622eac72a4d3e421d843d7998226e6d657a432471d505d5ffa5e04a",
      "transactionType": "CALL",
      "contractName": null,
      "contractAddress": "0x000000000022d473030f116ddee9f6b43ac78ba3",
      "function": "approve(address,address,uint160,uint48)",
      "arguments": [
        "0x5eff990c0A24A5F384119808398d1A64cE4BC537",
        "0xAc631556d3d4019C95769033B5E719dD77124BAc",
        "1461501637330902918203684832716283019655932542975",
        "281474976710655"
      ],
      "transaction": {
        "from": "0x6122db054706cd0ff66301f5afc5d121644d0997",
        "to": "0x000000000022d473030f116ddee9f6b43ac78ba3",
        "gas": "0x8f87",
        "value": "0x0",
        "input": "0x87517c450000000000000000000000005eff990c0a24a5f384119808398d1a64ce4bc537000000000000000000000000ac631556d3d4019c95769033b5e719dd77124bac000000000000000000000000ffffffffffffffffffffffffffffffffffffffff0000000000000000000000000000000000000000000000000000ffffffffffff",
        "nonce": "0x1c",
        "chainId": "0x66eee"
      },
      "additionalContracts": [],
      "isFixedGasLimit": false
    },
    {
      "hash": "0xbb46c01326d36de8601eecb1a15261d758ec9f3c10f1981777f37ae8e4e29276",
      "transactionType": "CALL",
      "contractName": null,
      "contractAddress": "0x65edc65510ae691bb4f2bed5283a004e4ebd8ee3",
      "function": "approve(address,uint256)",
      "arguments": [
        "0x000000000022D473030F116dDEE9F6B43aC78BA3",
        "115792089237316195423570985008687907853269984665640564039457584007913129639935"
      ],
      "transaction": {
        "from": "0x6122db054706cd0ff66301f5afc5d121644d0997",
        "to": "0x65edc65510ae691bb4f2bed5283a004e4ebd8ee3",
        "gas": "0x898b",
        "value": "0x0",
        "input": "0x095ea7b3000000000000000000000000000000000022d473030f116ddee9f6b43ac78ba3ffffffffffffffffffffffffffffffffffffffffffffffffffffffffffffffff",
        "nonce": "0x1d",
        "chainId": "0x66eee"
      },
      "additionalContracts": [],
      "isFixedGasLimit": false
    },
    {
      "hash": "0xb6ea40dcf10f3dfd1436a97fe45265f393fac3093f9d8acc6f20d49798c7c57f",
      "transactionType": "CALL",
      "contractName": null,
      "contractAddress": "0x000000000022d473030f116ddee9f6b43ac78ba3",
      "function": "approve(address,address,uint160,uint48)",
      "arguments": [
        "0x65eDC65510AE691bb4F2BeD5283A004e4ebD8Ee3",
        "0xAc631556d3d4019C95769033B5E719dD77124BAc",
        "1461501637330902918203684832716283019655932542975",
        "281474976710655"
      ],
      "transaction": {
        "from": "0x6122db054706cd0ff66301f5afc5d121644d0997",
        "to": "0x000000000022d473030f116ddee9f6b43ac78ba3",
        "gas": "0x8f77",
        "value": "0x0",
        "input": "0x87517c4500000000000000000000000065edc65510ae691bb4f2bed5283a004e4ebd8ee3000000000000000000000000ac631556d3d4019c95769033b5e719dd77124bac000000000000000000000000ffffffffffffffffffffffffffffffffffffffff0000000000000000000000000000000000000000000000000000ffffffffffff",
        "nonce": "0x1e",
        "chainId": "0x66eee"
      },
      "additionalContracts": [],
      "isFixedGasLimit": false
    },
    {
      "hash": "0x25e062627f5e75c7b6d845ad677fdb19bf898ffcea61ca7725ed14ba1f04a2b8",
      "transactionType": "CALL",
      "contractName": null,
      "contractAddress": "0xac631556d3d4019c95769033b5e719dd77124bac",
      "function": "multicall(bytes[])",
      "arguments": [
        "[0xdd46508f00000000000000000000000000000000000000000000000000000000000000400000000000000000000000000000000000000000000000000000000068ef70370000000000000000000000000000000000000000000000000000000000000400000000000000000000000000000000000000000000000000000000000000004000000000000000000000000000000000000000000000000000000000000000800000000000000000000000000000000000000000000000000000000000000004020d14140000000000000000000000000000000000000000000000000000000000000000000000000000000000000000000000000000000000000000000000040000000000000000000000000000000000000000000000000000000000000080000000000000000000000000000000000000000000000000000000000000024000000000000000000000000000000000000000000000000000000000000002a0000000000000000000000000000000000000000000000000000000000000030000000000000000000000000000000000000000000000000000000000000001a00000000000000000000000005eff990c0a24a5f384119808398d1a64ce4bc53700000000000000000000000065edc65510ae691bb4f2bed5283a004e4ebd8ee30000000000000000000000000000000000000000000000000000000000000bb8000000000000000000000000000000000000000000000000000000000000003c0000000000000000000000000000000000000000000000000000000000000000ffffffffffffffffffffffffffffffffffffffffffffffffffffffffffff15a0000000000000000000000000000000000000000000000000000000000000ea600000000000000000000000000000000000000000000000000000000000100ef300000000000000000000000000000000000000000000000000000000000f42410000000000000000000000000000000000000000000000000de0b6b3a76400010000000000000000000000006122db054706cd0ff66301f5afc5d121644d09970000000000000000000000000000000000000000000000000000000000000180000000000000000000000000000000000000000000000000000000000000000000000000000000000000000000000000000000000000000000000000000000400000000000000000000000005eff990c0a24a5f384119808398d1a64ce4bc53700000000000000000000000065edc65510ae691bb4f2bed5283a004e4ebd8ee300000000000000000000000000000000000000000000000000000000000000400000000000000000000000005eff990c0a24a5f384119808398d1a64ce4bc5370000000000000000000000006122db054706cd0ff66301f5afc5d121644d0997000000000000000000000000000000000000000000000000000000000000004000000000000000000000000065edc65510ae691bb4f2bed5283a004e4ebd8ee30000000000000000000000006122db054706cd0ff66301f5afc5d121644d0997]"
      ],
      "transaction": {
        "from": "0x6122db054706cd0ff66301f5afc5d121644d0997",
        "to": "0xac631556d3d4019c95769033b5e719dd77124bac",
        "gas": "0x69a1d",
        "value": "0x0",
        "input": "0xac9650d80000000000000000000000000000000000000000000000000000000000000020000000000000000000000000000000000000000000000000000000000000000100000000000000000000000000000000000000000000000000000000000000200000000000000000000000000000000000000000000000000000000000000464dd46508f00000000000000000000000000000000000000000000000000000000000000400000000000000000000000000000000000000000000000000000000068ef70370000000000000000000000000000000000000000000000000000000000000400000000000000000000000000000000000000000000000000000000000000004000000000000000000000000000000000000000000000000000000000000000800000000000000000000000000000000000000000000000000000000000000004020d14140000000000000000000000000000000000000000000000000000000000000000000000000000000000000000000000000000000000000000000000040000000000000000000000000000000000000000000000000000000000000080000000000000000000000000000000000000000000000000000000000000024000000000000000000000000000000000000000000000000000000000000002a0000000000000000000000000000000000000000000000000000000000000030000000000000000000000000000000000000000000000000000000000000001a00000000000000000000000005eff990c0a24a5f384119808398d1a64ce4bc53700000000000000000000000065edc65510ae691bb4f2bed5283a004e4ebd8ee30000000000000000000000000000000000000000000000000000000000000bb8000000000000000000000000000000000000000000000000000000000000003c0000000000000000000000000000000000000000000000000000000000000000ffffffffffffffffffffffffffffffffffffffffffffffffffffffffffff15a0000000000000000000000000000000000000000000000000000000000000ea600000000000000000000000000000000000000000000000000000000000100ef300000000000000000000000000000000000000000000000000000000000f42410000000000000000000000000000000000000000000000000de0b6b3a76400010000000000000000000000006122db054706cd0ff66301f5afc5d121644d09970000000000000000000000000000000000000000000000000000000000000180000000000000000000000000000000000000000000000000000000000000000000000000000000000000000000000000000000000000000000000000000000400000000000000000000000005eff990c0a24a5f384119808398d1a64ce4bc53700000000000000000000000065edc65510ae691bb4f2bed5283a004e4ebd8ee300000000000000000000000000000000000000000000000000000000000000400000000000000000000000005eff990c0a24a5f384119808398d1a64ce4bc5370000000000000000000000006122db054706cd0ff66301f5afc5d121644d0997000000000000000000000000000000000000000000000000000000000000004000000000000000000000000065edc65510ae691bb4f2bed5283a004e4ebd8ee30000000000000000000000006122db054706cd0ff66301f5afc5d121644d099700000000000000000000000000000000000000000000000000000000",
        "nonce": "0x1f",
        "chainId": "0x66eee"
      },
      "additionalContracts": [],
      "isFixedGasLimit": false
    }
  ],
  "receipts": [
    {
      "status": "0x1",
      "cumulativeGasUsed": "0x303b2",
      "logs": [
        {
          "address": "0x5eff990c0a24a5f384119808398d1a64ce4bc537",
          "topics": [
            "0x8c5be1e5ebec7d5bd14f71427d1e84f3dd0314c0f7b2291e5b200ac8c7c3b925",
            "0x0000000000000000000000006122db054706cd0ff66301f5afc5d121644d0997",
            "0x000000000000000000000000000000000022d473030f116ddee9f6b43ac78ba3"
          ],
          "data": "0xffffffffffffffffffffffffffffffffffffffffffffffffffffffffffffffff",
          "blockHash": "0x352da9a80488eb8288acae37a066fc9d9fdd4a349dba8cfa24a3b3d73f98d8ed",
          "blockNumber": "0xc35ab52",
          "transactionHash": "0x391fb612e2ec6a84b7a794568506a283e366d5551d39897610bbff019b5b0c9e",
          "transactionIndex": "0x4",
          "logIndex": "0x1",
          "removed": false
        }
      ],
      "logsBloom": "0x00000000000000000001000000000000000000000000000000000000000000000000000000000000000000000000000000000000800000000000000000200000000000000000000004004000000000000000000000000800000000000000000000000000000000000000000000000000000000000000000000000800000000000000000000000000000000000000400000000000800000000000000000000000020000000000000000000000000000000000000000000000000000000000000000800000000000000000000000000000000000000000000000000000000000000010000000000000000000000000000000000000000000000000000000000000",
      "type": "0x2",
      "transactionHash": "0x391fb612e2ec6a84b7a794568506a283e366d5551d39897610bbff019b5b0c9e",
      "transactionIndex": "0x4",
      "blockHash": "0x352da9a80488eb8288acae37a066fc9d9fdd4a349dba8cfa24a3b3d73f98d8ed",
      "blockNumber": "0xc35ab52",
      "gasUsed": "0x6876",
      "effectiveGasPrice": "0x5f5e100",
      "from": "0x6122db054706cd0ff66301f5afc5d121644d0997",
      "to": "0x5eff990c0a24a5f384119808398d1a64ce4bc537",
      "contractAddress": null,
      "gasUsedForL1": "0x0",
      "l1BlockNumber": "0x8fae95",
      "timeboosted": false
    },
    {
      "status": "0x1",
      "cumulativeGasUsed": "0x1eeb08",
      "logs": [
        {
          "address": "0x000000000022d473030f116ddee9f6b43ac78ba3",
          "topics": [
            "0xda9fa7c1b00402c17d0161b249b1ab8bbec047c5a52207b9c112deffd817036b",
            "0x0000000000000000000000006122db054706cd0ff66301f5afc5d121644d0997",
            "0x0000000000000000000000005eff990c0a24a5f384119808398d1a64ce4bc537",
            "0x000000000000000000000000ac631556d3d4019c95769033b5e719dd77124bac"
          ],
          "data": "0x000000000000000000000000ffffffffffffffffffffffffffffffffffffffff0000000000000000000000000000000000000000000000000000ffffffffffff",
          "blockHash": "0x8258186a8398911a52317528605ef8aa4d1c0f83c63d4b9c10cca123fc92b348",
          "blockNumber": "0xc35ab54",
          "transactionHash": "0xdd784ed84622eac72a4d3e421d843d7998226e6d657a432471d505d5ffa5e04a",
          "transactionIndex": "0xb",
          "logIndex": "0xd",
          "removed": false
        }
      ],
      "logsBloom": "0x00010000000000000000000000000000000000000000000000000000000000000000000000000000100000000000100000000000000000000000000000080000000000000020000000000000000000000000000004000000000000000000000000000000000000000000000000000000000000000000000000000800000000000020000000000000000000000000400000000000000200000000000000000000000000000000000000000000000000000000000000000000000000080000000000800000000000000000010000000000000000000000000040000000000000000000000000000000000000000000000000000000000000000000000000000400",
      "type": "0x2",
      "transactionHash": "0xdd784ed84622eac72a4d3e421d843d7998226e6d657a432471d505d5ffa5e04a",
      "transactionIndex": "0xb",
      "blockHash": "0x8258186a8398911a52317528605ef8aa4d1c0f83c63d4b9c10cca123fc92b348",
      "blockNumber": "0xc35ab54",
      "gasUsed": "0x6d0e",
      "effectiveGasPrice": "0x5f5e100",
      "from": "0x6122db054706cd0ff66301f5afc5d121644d0997",
      "to": "0x000000000022d473030f116ddee9f6b43ac78ba3",
      "contractAddress": null,
      "gasUsedForL1": "0x0",
      "l1BlockNumber": "0x8fae95",
      "timeboosted": false
    },
    {
      "status": "0x1",
      "cumulativeGasUsed": "0xd3f15",
      "logs": [
        {
          "address": "0x65edc65510ae691bb4f2bed5283a004e4ebd8ee3",
          "topics": [
            "0x8c5be1e5ebec7d5bd14f71427d1e84f3dd0314c0f7b2291e5b200ac8c7c3b925",
            "0x0000000000000000000000006122db054706cd0ff66301f5afc5d121644d0997",
            "0x000000000000000000000000000000000022d473030f116ddee9f6b43ac78ba3"
          ],
          "data": "0xffffffffffffffffffffffffffffffffffffffffffffffffffffffffffffffff",
          "blockHash": "0x2c5db592b04abeb36925bde5c14bb4cc0572c95d489daea166bf545fe1d2fcf8",
          "blockNumber": "0xc35ab56",
          "transactionHash": "0xbb46c01326d36de8601eecb1a15261d758ec9f3c10f1981777f37ae8e4e29276",
          "transactionIndex": "0x9",
          "logIndex": "0xa",
          "removed": false
        }
      ],
      "logsBloom": "0x00000000000000000000000000000000000000000000000000000000000000000000000000000000200000000000000000000000800000000000000000200000000000000000000000004000000000000000000000000800000000000000000000000000000000000000000000000000000000000000000000000800000000000000000000000000000000000000400000000000000000000000000000000000020000000000000000000000000000000000000000000000000000000000000000800000000000000000000000000000000000000000000000000000000000000010000000000000000002000000000200000000000000000000000000000000",
      "type": "0x2",
      "transactionHash": "0xbb46c01326d36de8601eecb1a15261d758ec9f3c10f1981777f37ae8e4e29276",
      "transactionIndex": "0x9",
      "blockHash": "0x2c5db592b04abeb36925bde5c14bb4cc0572c95d489daea166bf545fe1d2fcf8",
      "blockNumber": "0xc35ab56",
      "gasUsed": "0x6876",
      "effectiveGasPrice": "0x5f5e100",
      "from": "0x6122db054706cd0ff66301f5afc5d121644d0997",
      "to": "0x65edc65510ae691bb4f2bed5283a004e4ebd8ee3",
      "contractAddress": null,
      "gasUsedForL1": "0x0",
      "l1BlockNumber": "0x8fae95",
      "timeboosted": false
    },
    {
      "status": "0x1",
      "cumulativeGasUsed": "0x9015c",
      "logs": [
        {
          "address": "0x000000000022d473030f116ddee9f6b43ac78ba3",
          "topics": [
            "0xda9fa7c1b00402c17d0161b249b1ab8bbec047c5a52207b9c112deffd817036b",
            "0x0000000000000000000000006122db054706cd0ff66301f5afc5d121644d0997",
            "0x00000000000000000000000065edc65510ae691bb4f2bed5283a004e4ebd8ee3",
            "0x000000000000000000000000ac631556d3d4019c95769033b5e719dd77124bac"
          ],
          "data": "0x000000000000000000000000ffffffffffffffffffffffffffffffffffffffff0000000000000000000000000000000000000000000000000000ffffffffffff",
          "blockHash": "0xd1d84da5da2fd2c25f1bc71f25d0998c9c2836eadb64159542e0615c0dae919b",
          "blockNumber": "0xc35ab58",
          "transactionHash": "0xb6ea40dcf10f3dfd1436a97fe45265f393fac3093f9d8acc6f20d49798c7c57f",
          "transactionIndex": "0x8",
          "logIndex": "0x5",
          "removed": false
        }
      ],
      "logsBloom": "0x00010000000000000000000000000000000000000000000000000000000000000000000000000000100000000000000000002000000000000000000000080000000000000020000000000000000000000000000000000000000000000000000000000000010000000000000000000000000000000000000000000800000000000020000000000000000000000400400000000000000000000000000000000000000000000000000000000000000000000000000000000000000000080000000000800000000000000000010000000000000000000000000040000000000000000000000000000000000000000000000000000000000000000000000000000400",
      "type": "0x2",
      "transactionHash": "0xb6ea40dcf10f3dfd1436a97fe45265f393fac3093f9d8acc6f20d49798c7c57f",
      "transactionIndex": "0x8",
      "blockHash": "0xd1d84da5da2fd2c25f1bc71f25d0998c9c2836eadb64159542e0615c0dae919b",
      "blockNumber": "0xc35ab58",
      "gasUsed": "0x6d02",
      "effectiveGasPrice": "0x5f5e100",
      "from": "0x6122db054706cd0ff66301f5afc5d121644d0997",
      "to": "0x000000000022d473030f116ddee9f6b43ac78ba3",
      "contractAddress": null,
      "gasUsedForL1": "0x0",
      "l1BlockNumber": "0x8fae95",
      "timeboosted": false
    },
    {
      "status": "0x1",
      "cumulativeGasUsed": "0x75b95",
      "logs": [
        {
          "address": "0xac631556d3d4019c95769033b5e719dd77124bac",
          "topics": [
            "0xddf252ad1be2c89b69c2b068fc378daa952ba7f163c4a11628f55a4df523b3ef",
            "0x0000000000000000000000000000000000000000000000000000000000000000",
            "0x0000000000000000000000006122db054706cd0ff66301f5afc5d121644d0997",
            "0x0000000000000000000000000000000000000000000000000000000000000068"
          ],
          "data": "0x",
          "blockHash": "0x22835993d7e463b8addd74e7d51e68bd1dd7d6c4fdab16d71bb93fa403ed4dfe",
          "blockNumber": "0xc35ab5a",
          "transactionHash": "0x25e062627f5e75c7b6d845ad677fdb19bf898ffcea61ca7725ed14ba1f04a2b8",
          "transactionIndex": "0x2",
          "logIndex": "0x3",
          "removed": false
        },
        {
          "address": "0xfb3e0c6f74eb1a21cc1da29aec80d2dfe6c9a317",
          "topics": [
            "0xf208f4912782fd25c7f114ca3723a2d5dd6f3bcc3ac8db5af63baa85f711d5ec",
            "0xba72881722883d9a6cb0792325e1fe5b75da2b55c81f87b2d858fe78d68230c4",
            "0x000000000000000000000000ac631556d3d4019c95769033b5e719dd77124bac"
          ],
          "data": "0xffffffffffffffffffffffffffffffffffffffffffffffffffffffffffff15a0000000000000000000000000000000000000000000000000000000000000ea600000000000000000000000000000000000000000000000000000000000100ef30000000000000000000000000000000000000000000000000000000000000068",
          "blockHash": "0x22835993d7e463b8addd74e7d51e68bd1dd7d6c4fdab16d71bb93fa403ed4dfe",
          "blockNumber": "0xc35ab5a",
          "transactionHash": "0x25e062627f5e75c7b6d845ad677fdb19bf898ffcea61ca7725ed14ba1f04a2b8",
          "transactionIndex": "0x2",
          "logIndex": "0x4",
          "removed": false
        },
        {
          "address": "0x5eff990c0a24a5f384119808398d1a64ce4bc537",
          "topics": [
            "0xddf252ad1be2c89b69c2b068fc378daa952ba7f163c4a11628f55a4df523b3ef",
            "0x0000000000000000000000006122db054706cd0ff66301f5afc5d121644d0997",
            "0x000000000000000000000000fb3e0c6f74eb1a21cc1da29aec80d2dfe6c9a317"
          ],
          "data": "0x00000000000000000000000000000000000000000000000000000000000f4240",
          "blockHash": "0x22835993d7e463b8addd74e7d51e68bd1dd7d6c4fdab16d71bb93fa403ed4dfe",
          "blockNumber": "0xc35ab5a",
          "transactionHash": "0x25e062627f5e75c7b6d845ad677fdb19bf898ffcea61ca7725ed14ba1f04a2b8",
          "transactionIndex": "0x2",
          "logIndex": "0x5",
          "removed": false
        },
        {
          "address": "0x65edc65510ae691bb4f2bed5283a004e4ebd8ee3",
          "topics": [
            "0xddf252ad1be2c89b69c2b068fc378daa952ba7f163c4a11628f55a4df523b3ef",
            "0x0000000000000000000000006122db054706cd0ff66301f5afc5d121644d0997",
            "0x000000000000000000000000fb3e0c6f74eb1a21cc1da29aec80d2dfe6c9a317"
          ],
          "data": "0x00000000000000000000000000000000000000000000000000000000000f4240",
          "blockHash": "0x22835993d7e463b8addd74e7d51e68bd1dd7d6c4fdab16d71bb93fa403ed4dfe",
          "blockNumber": "0xc35ab5a",
          "transactionHash": "0x25e062627f5e75c7b6d845ad677fdb19bf898ffcea61ca7725ed14ba1f04a2b8",
          "transactionIndex": "0x2",
          "logIndex": "0x6",
          "removed": false
        }
      ],
      "logsBloom": "0x00000040000000000001000000000008000000000020100000000000000000000000000000000000300040000000000000000000000000000000000000000040000000000020000004000008000000000000000000000000000000000000100000000000020400000000000000000800000000080000000000000811000000000000000001000000000000000000400000000000800000000000000000000000000004200000000000000000000000000000000000000000000000000020000000800002000000000000010000000000000000000000000000000000000020000000000000000000400002000000000204000000000000100000000000000004",
      "type": "0x2",
      "transactionHash": "0x25e062627f5e75c7b6d845ad677fdb19bf898ffcea61ca7725ed14ba1f04a2b8",
      "transactionIndex": "0x2",
      "blockHash": "0x22835993d7e463b8addd74e7d51e68bd1dd7d6c4fdab16d71bb93fa403ed4dfe",
      "blockNumber": "0xc35ab5a",
      "gasUsed": "0x4e31b",
      "effectiveGasPrice": "0x5f5e100",
      "from": "0x6122db054706cd0ff66301f5afc5d121644d0997",
      "to": "0xac631556d3d4019c95769033b5e719dd77124bac",
      "contractAddress": null,
      "gasUsedForL1": "0x0",
      "l1BlockNumber": "0x8fae95",
      "timeboosted": false
    }
  ],
  "libraries": [],
  "pending": [],
  "returns": {},
  "timestamp": 1760522241,
  "chain": 421614,
  "commit": "de4281e"
}