{
  "transactions": [
    {
      "hash": "0xff4b195f521c09ad495867905f6824b89c6a2c4dd40af80a731021178126f958",
      "transactionType": "CALL",
      "contractName": null,
      "contractAddress": "0x5eff990c0a24a5f384119808398d1a64ce4bc537",
      "function": "approve(address,uint256)",
      "arguments": [
        "0x000000000022D473030F116dDEE9F6B43aC78BA3",
        "115792089237316195423570985008687907853269984665640564039457584007913129639935"
      ],
      "transaction": {
        "from": "0x6122db054706cd0ff66301f5afc5d121644d0997",
        "to": "0x5eff990c0a24a5f384119808398d1a64ce4bc537",
        "gas": "0x898b",
        "value": "0x0",
        "input": "0x095ea7b3000000000000000000000000000000000022d473030f116ddee9f6b43ac78ba3ffffffffffffffffffffffffffffffffffffffffffffffffffffffffffffffff",
        "nonce": "0x3e",
        "chainId": "0x66eee"
      },
      "additionalContracts": [],
      "isFixedGasLimit": false
    },
    {
      "hash": "0x597c4cf8bdba05c33f7b6c59546e99d41614fecac14a08a8bbbee8a7734ee3d3",
      "transactionType": "CALL",
      "contractName": null,
      "contractAddress": "0x000000000022d473030f116ddee9f6b43ac78ba3",
      "function": "approve(address,address,uint160,uint48)",
      "arguments": [
        "0x5eff990c0A24A5F384119808398d1A64cE4BC537",
        "0xAc631556d3d4019C95769033B5E719dD77124BAc",
        "1461501637330902918203684832716283019655932542975",
        "281474976710655"
      ],
      "transaction": {
        "from": "0x6122db054706cd0ff66301f5afc5d121644d0997",
        "to": "0x000000000022d473030f116ddee9f6b43ac78ba3",
        "gas": "0x8f87",
        "value": "0x0",
        "input": "0x87517c450000000000000000000000005eff990c0a24a5f384119808398d1a64ce4bc537000000000000000000000000ac631556d3d4019c95769033b5e719dd77124bac000000000000000000000000ffffffffffffffffffffffffffffffffffffffff0000000000000000000000000000000000000000000000000000ffffffffffff",
        "nonce": "0x3f",
        "chainId": "0x66eee"
      },
      "additionalContracts": [],
      "isFixedGasLimit": false
    },
    {
      "hash": "0x004017b9eb635cc62b3f4f90ebb41b159cf4246440d9e97a75cc76b48fd04643",
      "transactionType": "CALL",
      "contractName": null,
      "contractAddress": "0x65edc65510ae691bb4f2bed5283a004e4ebd8ee3",
      "function": "approve(address,uint256)",
      "arguments": [
        "0x000000000022D473030F116dDEE9F6B43aC78BA3",
        "115792089237316195423570985008687907853269984665640564039457584007913129639935"
      ],
      "transaction": {
        "from": "0x6122db054706cd0ff66301f5afc5d121644d0997",
        "to": "0x65edc65510ae691bb4f2bed5283a004e4ebd8ee3",
        "gas": "0x898b",
        "value": "0x0",
        "input": "0x095ea7b3000000000000000000000000000000000022d473030f116ddee9f6b43ac78ba3ffffffffffffffffffffffffffffffffffffffffffffffffffffffffffffffff",
        "nonce": "0x40",
        "chainId": "0x66eee"
      },
      "additionalContracts": [],
      "isFixedGasLimit": false
    },
    {
      "hash": "0x07f251737b022b611fed41ff42ab74d713fa26b630c0a608a1ec2214fabfd9e7",
      "transactionType": "CALL",
      "contractName": null,
      "contractAddress": "0x000000000022d473030f116ddee9f6b43ac78ba3",
      "function": "approve(address,address,uint160,uint48)",
      "arguments": [
        "0x65eDC65510AE691bb4F2BeD5283A004e4ebD8Ee3",
        "0xAc631556d3d4019C95769033B5E719dD77124BAc",
        "1461501637330902918203684832716283019655932542975",
        "281474976710655"
      ],
      "transaction": {
        "from": "0x6122db054706cd0ff66301f5afc5d121644d0997",
        "to": "0x000000000022d473030f116ddee9f6b43ac78ba3",
        "gas": "0x8f77",
        "value": "0x0",
        "input": "0x87517c4500000000000000000000000065edc65510ae691bb4f2bed5283a004e4ebd8ee3000000000000000000000000ac631556d3d4019c95769033b5e719dd77124bac000000000000000000000000ffffffffffffffffffffffffffffffffffffffff0000000000000000000000000000000000000000000000000000ffffffffffff",
        "nonce": "0x41",
        "chainId": "0x66eee"
      },
      "additionalContracts": [],
      "isFixedGasLimit": false
    },
    {
      "hash": "0x0913548a232370c17a2631945404215e54ab7a76fc0ca5c6f09308cd94e535c8",
      "transactionType": "CALL",
      "contractName": null,
      "contractAddress": "0xac631556d3d4019c95769033b5e719dd77124bac",
      "function": "multicall(bytes[])",
      "arguments": [
        "[0xdd46508f00000000000000000000000000000000000000000000000000000000000000400000000000000000000000000000000000000000000000000000000068efc6aa0000000000000000000000000000000000000000000000000000000000000400000000000000000000000000000000000000000000000000000000000000004000000000000000000000000000000000000000000000000000000000000000800000000000000000000000000000000000000000000000000000000000000004020d14140000000000000000000000000000000000000000000000000000000000000000000000000000000000000000000000000000000000000000000000040000000000000000000000000000000000000000000000000000000000000080000000000000000000000000000000000000000000000000000000000000024000000000000000000000000000000000000000000000000000000000000002a0000000000000000000000000000000000000000000000000000000000000030000000000000000000000000000000000000000000000000000000000000001a00000000000000000000000005eff990c0a24a5f384119808398d1a64ce4bc53700000000000000000000000065edc65510ae691bb4f2bed5283a004e4ebd8ee30000000000000000000000000000000000000000000000000000000000800000000000000000000000000000000000000000000000000000000000000000003c0000000000000000000000006341aff31aa81cb666593f2d1005226c1ebc2080ffffffffffffffffffffffffffffffffffffffffffffffffffffffffffff15a0000000000000000000000000000000000000000000000000000000000000ea60000000000000000000000000000000000000000000000000000000003eba68ff000000000000000000000000000000000000000000000000000000003b9aca0100000000000000000000000000000000000000000000003635c9adc5dea000010000000000000000000000006122db054706cd0ff66301f5afc5d121644d09970000000000000000000000000000000000000000000000000000000000000180000000000000000000000000000000000000000000000000000000000000000000000000000000000000000000000000000000000000000000000000000000400000000000000000000000005eff990c0a24a5f384119808398d1a64ce4bc53700000000000000000000000065edc65510ae691bb4f2bed5283a004e4ebd8ee300000000000000000000000000000000000000000000000000000000000000400000000000000000000000005eff990c0a24a5f384119808398d1a64ce4bc5370000000000000000000000006122db054706cd0ff66301f5afc5d121644d0997000000000000000000000000000000000000000000000000000000000000004000000000000000000000000065edc65510ae691bb4f2bed5283a004e4ebd8ee30000000000000000000000006122db054706cd0ff66301f5afc5d121644d0997]"
      ],
      "transaction": {
        "from": "0x6122db054706cd0ff66301f5afc5d121644d0997",
        "to": "0xac631556d3d4019c95769033b5e719dd77124bac",
        "gas": "0x69b7f",
        "value": "0x0",
        "input": "0xac9650d80000000000000000000000000000000000000000000000000000000000000020000000000000000000000000000000000000000000000000000000000000000100000000000000000000000000000000000000000000000000000000000000200000000000000000000000000000000000000000000000000000000000000464dd46508f00000000000000000000000000000000000000000000000000000000000000400000000000000000000000000000000000000000000000000000000068efc6aa0000000000000000000000000000000000000000000000000000000000000400000000000000000000000000000000000000000000000000000000000000004000000000000000000000000000000000000000000000000000000000000000800000000000000000000000000000000000000000000000000000000000000004020d14140000000000000000000000000000000000000000000000000000000000000000000000000000000000000000000000000000000000000000000000040000000000000000000000000000000000000000000000000000000000000080000000000000000000000000000000000000000000000000000000000000024000000000000000000000000000000000000000000000000000000000000002a0000000000000000000000000000000000000000000000000000000000000030000000000000000000000000000000000000000000000000000000000000001a00000000000000000000000005eff990c0a24a5f384119808398d1a64ce4bc53700000000000000000000000065edc65510ae691bb4f2bed5283a004e4ebd8ee30000000000000000000000000000000000000000000000000000000000800000000000000000000000000000000000000000000000000000000000000000003c0000000000000000000000006341aff31aa81cb666593f2d1005226c1ebc2080ffffffffffffffffffffffffffffffffffffffffffffffffffffffffffff15a0000000000000000000000000000000000000000000000000000000000000ea60000000000000000000000000000000000000000000000000000000003eba68ff000000000000000000000000000000000000000000000000000000003b9aca0100000000000000000000000000000000000000000000003635c9adc5dea000010000000000000000000000006122db054706cd0ff66301f5afc5d121644d09970000000000000000000000000000000000000000000000000000000000000180000000000000000000000000000000000000000000000000000000000000000000000000000000000000000000000000000000000000000000000000000000400000000000000000000000005eff990c0a24a5f384119808398d1a64ce4bc53700000000000000000000000065edc65510ae691bb4f2bed5283a004e4ebd8ee300000000000000000000000000000000000000000000000000000000000000400000000000000000000000005eff990c0a24a5f384119808398d1a64ce4bc5370000000000000000000000006122db054706cd0ff66301f5afc5d121644d0997000000000000000000000000000000000000000000000000000000000000004000000000000000000000000065edc65510ae691bb4f2bed5283a004e4ebd8ee30000000000000000000000006122db054706cd0ff66301f5afc5d121644d099700000000000000000000000000000000000000000000000000000000",
        "nonce": "0x42",
        "chainId": "0x66eee"
      },
      "additionalContracts": [],
      "isFixedGasLimit": false
    }
  ],
  "receipts": [
    {
      "status": "0x1",
      "cumulativeGasUsed": "0x4c258",
      "logs": [
        {
          "address": "0x5eff990c0a24a5f384119808398d1a64ce4bc537",
          "topics": [
            "0x8c5be1e5ebec7d5bd14f71427d1e84f3dd0314c0f7b2291e5b200ac8c7c3b925",
            "0x0000000000000000000000006122db054706cd0ff66301f5afc5d121644d0997",
            "0x000000000000000000000000000000000022d473030f116ddee9f6b43ac78ba3"
          ],
          "data": "0xffffffffffffffffffffffffffffffffffffffffffffffffffffffffffffffff",
          "blockHash": "0x0b46027706ac714c9546fc9389ef4adb28a877854f4fc89685976e7f0ae7ae10",
          "blockNumber": "0xc3703b5",
          "transactionHash": "0xff4b195f521c09ad495867905f6824b89c6a2c4dd40af80a731021178126f958",
          "transactionIndex": "0x4",
          "logIndex": "0x3",
          "removed": false
        }
      ],
      "logsBloom": "0x00000000000000000001000000000000000000000000000000000000000000000000000000000000000000000000000000000000800000000000000000200000000000000000000004004000000000000000000000000800000000000000000000000000000000000000000000000000000000000000000000000800000000000000000000000000000000000000400000000000800000000000000000000000020000000000000000000000000000000000000000000000000000000000000000800000000000000000000000000000000000000000000000000000000000000010000000000000000000000000000000000000000000000000000000000000",
      "type": "0x2",
      "transactionHash": "0xff4b195f521c09ad495867905f6824b89c6a2c4dd40af80a731021178126f958",
      "transactionIndex": "0x4",
      "blockHash": "0x0b46027706ac714c9546fc9389ef4adb28a877854f4fc89685976e7f0ae7ae10",
      "blockNumber": "0xc3703b5",
      "gasUsed": "0x6876",
      "effectiveGasPrice": "0x5f5e100",
      "from": "0x6122db054706cd0ff66301f5afc5d121644d0997",
      "to": "0x5eff990c0a24a5f384119808398d1a64ce4bc537",
      "contractAddress": null,
      "gasUsedForL1": "0x0",
      "l1BlockNumber": "0x8fb5b1",
      "timeboosted": false
    },
    {
      "status": "0x1",
      "cumulativeGasUsed": "0x4b865",
      "logs": [
        {
          "address": "0x000000000022d473030f116ddee9f6b43ac78ba3",
          "topics": [
            "0xda9fa7c1b00402c17d0161b249b1ab8bbec047c5a52207b9c112deffd817036b",
            "0x0000000000000000000000006122db054706cd0ff66301f5afc5d121644d0997",
            "0x0000000000000000000000005eff990c0a24a5f384119808398d1a64ce4bc537",
            "0x000000000000000000000000ac631556d3d4019c95769033b5e719dd77124bac"
          ],
          "data": "0x000000000000000000000000ffffffffffffffffffffffffffffffffffffffff0000000000000000000000000000000000000000000000000000ffffffffffff",
          "blockHash": "0x15db5020332fa7e6295d23c0d24f09db4627bd1eddf5f1a32d5cd92ff803ecbb",
          "blockNumber": "0xc3703b9",
          "transactionHash": "0x597c4cf8bdba05c33f7b6c59546e99d41614fecac14a08a8bbbee8a7734ee3d3",
          "transactionIndex": "0x7",
          "logIndex": "0x0",
          "removed": false
        }
      ],
      "logsBloom": "0x00010000000000000000000000000000000000000000000000000000000000000000000000000000100000000000100000000000000000000000000000080000000000000020000000000000000000000000000004000000000000000000000000000000000000000000000000000000000000000000000000000800000000000020000000000000000000000000400000000000000200000000000000000000000000000000000000000000000000000000000000000000000000080000000000800000000000000000010000000000000000000000000040000000000000000000000000000000000000000000000000000000000000000000000000000400",
      "type": "0x2",
      "transactionHash": "0x597c4cf8bdba05c33f7b6c59546e99d41614fecac14a08a8bbbee8a7734ee3d3",
      "transactionIndex": "0x7",
      "blockHash": "0x15db5020332fa7e6295d23c0d24f09db4627bd1eddf5f1a32d5cd92ff803ecbb",
      "blockNumber": "0xc3703b9",
      "gasUsed": "0x6d0e",
      "effectiveGasPrice": "0x5f5e100",
      "from": "0x6122db054706cd0ff66301f5afc5d121644d0997",
      "to": "0x000000000022d473030f116ddee9f6b43ac78ba3",
      "contractAddress": null,
      "gasUsedForL1": "0x0",
      "l1BlockNumber": "0x8fb5b1",
      "timeboosted": false
    },
    {
      "status": "0x1",
      "cumulativeGasUsed": "0x6876",
      "logs": [
        {
          "address": "0x65edc65510ae691bb4f2bed5283a004e4ebd8ee3",
          "topics": [
            "0x8c5be1e5ebec7d5bd14f71427d1e84f3dd0314c0f7b2291e5b200ac8c7c3b925",
            "0x0000000000000000000000006122db054706cd0ff66301f5afc5d121644d0997",
            "0x000000000000000000000000000000000022d473030f116ddee9f6b43ac78ba3"
          ],
          "data": "0xffffffffffffffffffffffffffffffffffffffffffffffffffffffffffffffff",
          "blockHash": "0xfd134a1da008442ed89e3a520f6753bc9eef05e167aa9c41b34cb20bcd37cee1",
          "blockNumber": "0xc3703bd",
          "transactionHash": "0x004017b9eb635cc62b3f4f90ebb41b159cf4246440d9e97a75cc76b48fd04643",
          "transactionIndex": "0x1",
          "logIndex": "0x0",
          "removed": false
        }
      ],
      "logsBloom": "0x00000000000000000000000000000000000000000000000000000000000000000000000000000000200000000000000000000000800000000000000000200000000000000000000000004000000000000000000000000800000000000000000000000000000000000000000000000000000000000000000000000800000000000000000000000000000000000000400000000000000000000000000000000000020000000000000000000000000000000000000000000000000000000000000000800000000000000000000000000000000000000000000000000000000000000010000000000000000002000000000200000000000000000000000000000000",
      "type": "0x2",
      "transactionHash": "0x004017b9eb635cc62b3f4f90ebb41b159cf4246440d9e97a75cc76b48fd04643",
      "transactionIndex": "0x1",
      "blockHash": "0xfd134a1da008442ed89e3a520f6753bc9eef05e167aa9c41b34cb20bcd37cee1",
      "blockNumber": "0xc3703bd",
      "gasUsed": "0x6876",
      "effectiveGasPrice": "0x5f5e100",
      "from": "0x6122db054706cd0ff66301f5afc5d121644d0997",
      "to": "0x65edc65510ae691bb4f2bed5283a004e4ebd8ee3",
      "contractAddress": null,
      "gasUsedForL1": "0x0",
      "l1BlockNumber": "0x8fb5b1",
      "timeboosted": false
    },
    {
      "status": "0x1",
      "cumulativeGasUsed": "0x2dd9e",
      "logs": [
        {
          "address": "0x000000000022d473030f116ddee9f6b43ac78ba3",
          "topics": [
            "0xda9fa7c1b00402c17d0161b249b1ab8bbec047c5a52207b9c112deffd817036b",
            "0x0000000000000000000000006122db054706cd0ff66301f5afc5d121644d0997",
            "0x00000000000000000000000065edc65510ae691bb4f2bed5283a004e4ebd8ee3",
            "0x000000000000000000000000ac631556d3d4019c95769033b5e719dd77124bac"
          ],
          "data": "0x000000000000000000000000ffffffffffffffffffffffffffffffffffffffff0000000000000000000000000000000000000000000000000000ffffffffffff",
          "blockHash": "0xfbcf8c3d1f3c5ddcd085e656eb61a8ae2a0356f834fcee9fc7991b20e0d4e254",
          "blockNumber": "0xc3703c1",
          "transactionHash": "0x07f251737b022b611fed41ff42ab74d713fa26b630c0a608a1ec2214fabfd9e7",
          "transactionIndex": "0x3",
          "logIndex": "0x2",
          "removed": false
        }
      ],
      "logsBloom": "0x00010000000000000000000000000000000000000000000000000000000000000000000000000000100000000000000000002000000000000000000000080000000000000020000000000000000000000000000000000000000000000000000000000000010000000000000000000000000000000000000000000800000000000020000000000000000000000400400000000000000000000000000000000000000000000000000000000000000000000000000000000000000000080000000000800000000000000000010000000000000000000000000040000000000000000000000000000000000000000000000000000000000000000000000000000400",
      "type": "0x2",
      "transactionHash": "0x07f251737b022b611fed41ff42ab74d713fa26b630c0a608a1ec2214fabfd9e7",
      "transactionIndex": "0x3",
      "blockHash": "0xfbcf8c3d1f3c5ddcd085e656eb61a8ae2a0356f834fcee9fc7991b20e0d4e254",
      "blockNumber": "0xc3703c1",
      "gasUsed": "0x6d02",
      "effectiveGasPrice": "0x5f5e100",
      "from": "0x6122db054706cd0ff66301f5afc5d121644d0997",
      "to": "0x000000000022d473030f116ddee9f6b43ac78ba3",
      "contractAddress": null,
      "gasUsedForL1": "0x0",
      "l1BlockNumber": "0x8fb5b1",
      "timeboosted": false
    },
    {
      "status": "0x1",
      "cumulativeGasUsed": "0xe0d23",
      "logs": [
        {
          "address": "0xac631556d3d4019c95769033b5e719dd77124bac",
          "topics": [
            "0xddf252ad1be2c89b69c2b068fc378daa952ba7f163c4a11628f55a4df523b3ef",
            "0x0000000000000000000000000000000000000000000000000000000000000000",
            "0x0000000000000000000000006122db054706cd0ff66301f5afc5d121644d0997",
            "0x000000000000000000000000000000000000000000000000000000000000006e"
          ],
          "data": "0x",
          "blockHash": "0x7946b540cc8ad7ae706b9ae8ed23096a1d94ee07fe7e4aaca1342d2b9b2bd5a0",
          "blockNumber": "0xc3703c5",
          "transactionHash": "0x0913548a232370c17a2631945404215e54ab7a76fc0ca5c6f09308cd94e535c8",
          "transactionIndex": "0x9",
          "logIndex": "0x7",
          "removed": false
        },
        {
          "address": "0xfb3e0c6f74eb1a21cc1da29aec80d2dfe6c9a317",
          "topics": [
            "0xf208f4912782fd25c7f114ca3723a2d5dd6f3bcc3ac8db5af63baa85f711d5ec",
            "0xbb553067bffb141fd5e65547ce61861567fee8fb9d27235e259ce5d76df2640d",
            "0x000000000000000000000000ac631556d3d4019c95769033b5e719dd77124bac"
          ],
          "data": "0xffffffffffffffffffffffffffffffffffffffffffffffffffffffffffff15a0000000000000000000000000000000000000000000000000000000000000ea60000000000000000000000000000000000000000000000000000000003eba68ff000000000000000000000000000000000000000000000000000000000000006e",
          "blockHash": "0x7946b540cc8ad7ae706b9ae8ed23096a1d94ee07fe7e4aaca1342d2b9b2bd5a0",
          "blockNumber": "0xc3703c5",
          "transactionHash": "0x0913548a232370c17a2631945404215e54ab7a76fc0ca5c6f09308cd94e535c8",
          "transactionIndex": "0x9",
          "logIndex": "0x8",
          "removed": false
        },
        {
          "address": "0x5eff990c0a24a5f384119808398d1a64ce4bc537",
          "topics": [
            "0xddf252ad1be2c89b69c2b068fc378daa952ba7f163c4a11628f55a4df523b3ef",
            "0x0000000000000000000000006122db054706cd0ff66301f5afc5d121644d0997",
            "0x000000000000000000000000fb3e0c6f74eb1a21cc1da29aec80d2dfe6c9a317"
          ],
          "data": "0x000000000000000000000000000000000000000000000000000000003b9aca00",
          "blockHash": "0x7946b540cc8ad7ae706b9ae8ed23096a1d94ee07fe7e4aaca1342d2b9b2bd5a0",
          "blockNumber": "0xc3703c5",
          "transactionHash": "0x0913548a232370c17a2631945404215e54ab7a76fc0ca5c6f09308cd94e535c8",
          "transactionIndex": "0x9",
          "logIndex": "0x9",
          "removed": false
        },
        {
          "address": "0x65edc65510ae691bb4f2bed5283a004e4ebd8ee3",
          "topics": [
            "0xddf252ad1be2c89b69c2b068fc378daa952ba7f163c4a11628f55a4df523b3ef",
            "0x0000000000000000000000006122db054706cd0ff66301f5afc5d121644d0997",
            "0x000000000000000000000000fb3e0c6f74eb1a21cc1da29aec80d2dfe6c9a317"
          ],
          "data": "0x000000000000000000000000000000000000000000000000000000003b9aca00",
          "blockHash": "0x7946b540cc8ad7ae706b9ae8ed23096a1d94ee07fe7e4aaca1342d2b9b2bd5a0",
          "blockNumber": "0xc3703c5",
          "transactionHash": "0x0913548a232370c17a2631945404215e54ab7a76fc0ca5c6f09308cd94e535c8",
          "transactionIndex": "0x9",
          "logIndex": "0xa",
          "removed": false
        }
      ],
      "logsBloom": "0x00000040000000000001000000000008000000000020100000000000000000000000000000000000300000000000000100000000000000000000000000000040000040000020002004000008000000000000000000000000000000000000000000000000020400000000000000000800000000000000000000000810000000000000000001000000000000000000400000000000800000000000000000000000000004200000000000000000000000000000000000000000000000000000200080800002000000000000010000000000000000000000000000010000000020000000000000000000400002000000000204000000000000000000000000000004",
      "type": "0x2",
      "transactionHash": "0x0913548a232370c17a2631945404215e54ab7a76fc0ca5c6f09308cd94e535c8",
      "transactionIndex": "0x9",
      "blockHash": "0x7946b540cc8ad7ae706b9ae8ed23096a1d94ee07fe7e4aaca1342d2b9b2bd5a0",
      "blockNumber": "0xc3703c5",
      "gasUsed": "0x4e423",
      "effectiveGasPrice": "0x5f5e100",
      "from": "0x6122db054706cd0ff66301f5afc5d121644d0997",
      "to": "0xac631556d3d4019c95769033b5e719dd77124bac",
      "contractAddress": null,
      "gasUsedForL1": "0x0",
      "l1BlockNumber": "0x8fb5b1",
      "timeboosted": false
    }
  ],
  "libraries": [],
  "pending": [],
  "returns": {},
  "timestamp": 1760544375,
  "chain": 421614,
  "commit": "b43924e"
}