{
  "transactions": [
    {
      "hash": "0x75e79e35deadc19d376f92c45b4e10a14012be7fc7bd0751578e230b9f7a07d8",
      "transactionType": "CALL",
      "contractName": null,
      "contractAddress": "0x5eff990c0a24a5f384119808398d1a64ce4bc537",
      "function": "approve(address,uint256)",
      "arguments": [
        "0x000000000022D473030F116dDEE9F6B43aC78BA3",
        "115792089237316195423570985008687907853269984665640564039457584007913129639935"
      ],
      "transaction": {
        "from": "0x6122db054706cd0ff66301f5afc5d121644d0997",
        "to": "0x5eff990c0a24a5f384119808398d1a64ce4bc537",
        "gas": "0x898b",
        "value": "0x0",
        "input": "0x095ea7b3000000000000000000000000000000000022d473030f116ddee9f6b43ac78ba3ffffffffffffffffffffffffffffffffffffffffffffffffffffffffffffffff",
        "nonce": "0x2d",
        "chainId": "0x66eee"
      },
      "additionalContracts": [],
      "isFixedGasLimit": false
    },
    {
      "hash": "0xd2886662c87bef147f5a836051919f4ef471aeec50007f1ecf43d0d5e9eae780",
      "transactionType": "CALL",
      "contractName": null,
      "contractAddress": "0x000000000022d473030f116ddee9f6b43ac78ba3",
      "function": "approve(address,address,uint160,uint48)",
      "arguments": [
        "0x5eff990c0A24A5F384119808398d1A64cE4BC537",
        "0xAc631556d3d4019C95769033B5E719dD77124BAc",
        "1461501637330902918203684832716283019655932542975",
        "281474976710655"
      ],
      "transaction": {
        "from": "0x6122db054706cd0ff66301f5afc5d121644d0997",
        "to": "0x000000000022d473030f116ddee9f6b43ac78ba3",
        "gas": "0x8f87",
        "value": "0x0",
        "input": "0x87517c450000000000000000000000005eff990c0a24a5f384119808398d1a64ce4bc537000000000000000000000000ac631556d3d4019c95769033b5e719dd77124bac000000000000000000000000ffffffffffffffffffffffffffffffffffffffff0000000000000000000000000000000000000000000000000000ffffffffffff",
        "nonce": "0x2e",
        "chainId": "0x66eee"
      },
      "additionalContracts": [],
      "isFixedGasLimit": false
    },
    {
      "hash": "0x30f6b3d8e7873c50281f8e684e17c478989e3040f0159c8a20f1001811016936",
      "transactionType": "CALL",
      "contractName": null,
      "contractAddress": "0x65edc65510ae691bb4f2bed5283a004e4ebd8ee3",
      "function": "approve(address,uint256)",
      "arguments": [
        "0x000000000022D473030F116dDEE9F6B43aC78BA3",
        "115792089237316195423570985008687907853269984665640564039457584007913129639935"
      ],
      "transaction": {
        "from": "0x6122db054706cd0ff66301f5afc5d121644d0997",
        "to": "0x65edc65510ae691bb4f2bed5283a004e4ebd8ee3",
        "gas": "0x898b",
        "value": "0x0",
        "input": "0x095ea7b3000000000000000000000000000000000022d473030f116ddee9f6b43ac78ba3ffffffffffffffffffffffffffffffffffffffffffffffffffffffffffffffff",
        "nonce": "0x2f",
        "chainId": "0x66eee"
      },
      "additionalContracts": [],
      "isFixedGasLimit": false
    },
    {
      "hash": "0x5b4e37ad2fd42bb638a84567e30ce09771c68f0042034ef0ba40dc7c38916a8b",
      "transactionType": "CALL",
      "contractName": null,
      "contractAddress": "0x000000000022d473030f116ddee9f6b43ac78ba3",
      "function": "approve(address,address,uint160,uint48)",
      "arguments": [
        "0x65eDC65510AE691bb4F2BeD5283A004e4ebD8Ee3",
        "0xAc631556d3d4019C95769033B5E719dD77124BAc",
        "1461501637330902918203684832716283019655932542975",
        "281474976710655"
      ],
      "transaction": {
        "from": "0x6122db054706cd0ff66301f5afc5d121644d0997",
        "to": "0x000000000022d473030f116ddee9f6b43ac78ba3",
        "gas": "0x8f77",
        "value": "0x0",
        "input": "0x87517c4500000000000000000000000065edc65510ae691bb4f2bed5283a004e4ebd8ee3000000000000000000000000ac631556d3d4019c95769033b5e719dd77124bac000000000000000000000000ffffffffffffffffffffffffffffffffffffffff0000000000000000000000000000000000000000000000000000ffffffffffff",
        "nonce": "0x30",
        "chainId": "0x66eee"
      },
      "additionalContracts": [],
      "isFixedGasLimit": false
    },
    {
      "hash": "0x54a46fba52ebf3c813744b753e87d844cf83459a678dc879ae7a3a87831d8e2f",
      "transactionType": "CALL",
      "contractName": null,
      "contractAddress": "0xac631556d3d4019c95769033b5e719dd77124bac",
      "function": "multicall(bytes[])",
      "arguments": [
        "[0xdd46508f00000000000000000000000000000000000000000000000000000000000000400000000000000000000000000000000000000000000000000000000068ef9b430000000000000000000000000000000000000000000000000000000000000400000000000000000000000000000000000000000000000000000000000000004000000000000000000000000000000000000000000000000000000000000000800000000000000000000000000000000000000000000000000000000000000004020d14140000000000000000000000000000000000000000000000000000000000000000000000000000000000000000000000000000000000000000000000040000000000000000000000000000000000000000000000000000000000000080000000000000000000000000000000000000000000000000000000000000024000000000000000000000000000000000000000000000000000000000000002a0000000000000000000000000000000000000000000000000000000000000030000000000000000000000000000000000000000000000000000000000000001a00000000000000000000000005eff990c0a24a5f384119808398d1a64ce4bc53700000000000000000000000065edc65510ae691bb4f2bed5283a004e4ebd8ee30000000000000000000000000000000000000000000000000000000000800000000000000000000000000000000000000000000000000000000000000000003c000000000000000000000000e1ddfc178fb124178441174604c2d9dc1cd32080000000000000000000000000000000000000000000000000000000000000d728000000000000000000000000000000000000000000000000000000000002abe80000000000000000000000000000000000000000000000000000004d7f403416000000000000000000000000000000000000000000000000000000003b9aca0100000000000000000000000000000000000000000000003635c9adc5dea000010000000000000000000000006122db054706cd0ff66301f5afc5d121644d09970000000000000000000000000000000000000000000000000000000000000180000000000000000000000000000000000000000000000000000000000000000000000000000000000000000000000000000000000000000000000000000000400000000000000000000000005eff990c0a24a5f384119808398d1a64ce4bc53700000000000000000000000065edc65510ae691bb4f2bed5283a004e4ebd8ee300000000000000000000000000000000000000000000000000000000000000400000000000000000000000005eff990c0a24a5f384119808398d1a64ce4bc5370000000000000000000000006122db054706cd0ff66301f5afc5d121644d0997000000000000000000000000000000000000000000000000000000000000004000000000000000000000000065edc65510ae691bb4f2bed5283a004e4ebd8ee30000000000000000000000006122db054706cd0ff66301f5afc5d121644d0997]"
      ],
      "transaction": {
        "from": "0x6122db054706cd0ff66301f5afc5d121644d0997",
        "to": "0xac631556d3d4019c95769033b5e719dd77124bac",
        "gas": "0x4eeab",
        "value": "0x0",
        "input": "0xac9650d80000000000000000000000000000000000000000000000000000000000000020000000000000000000000000000000000000000000000000000000000000000100000000000000000000000000000000000000000000000000000000000000200000000000000000000000000000000000000000000000000000000000000464dd46508f00000000000000000000000000000000000000000000000000000000000000400000000000000000000000000000000000000000000000000000000068ef9b430000000000000000000000000000000000000000000000000000000000000400000000000000000000000000000000000000000000000000000000000000004000000000000000000000000000000000000000000000000000000000000000800000000000000000000000000000000000000000000000000000000000000004020d14140000000000000000000000000000000000000000000000000000000000000000000000000000000000000000000000000000000000000000000000040000000000000000000000000000000000000000000000000000000000000080000000000000000000000000000000000000000000000000000000000000024000000000000000000000000000000000000000000000000000000000000002a0000000000000000000000000000000000000000000000000000000000000030000000000000000000000000000000000000000000000000000000000000001a00000000000000000000000005eff990c0a24a5f384119808398d1a64ce4bc53700000000000000000000000065edc65510ae691bb4f2bed5283a004e4ebd8ee30000000000000000000000000000000000000000000000000000000000800000000000000000000000000000000000000000000000000000000000000000003c000000000000000000000000e1ddfc178fb124178441174604c2d9dc1cd32080000000000000000000000000000000000000000000000000000000000000d728000000000000000000000000000000000000000000000000000000000002abe80000000000000000000000000000000000000000000000000000004d7f403416000000000000000000000000000000000000000000000000000000003b9aca0100000000000000000000000000000000000000000000003635c9adc5dea000010000000000000000000000006122db054706cd0ff66301f5afc5d121644d09970000000000000000000000000000000000000000000000000000000000000180000000000000000000000000000000000000000000000000000000000000000000000000000000000000000000000000000000000000000000000000000000400000000000000000000000005eff990c0a24a5f384119808398d1a64ce4bc53700000000000000000000000065edc65510ae691bb4f2bed5283a004e4ebd8ee300000000000000000000000000000000000000000000000000000000000000400000000000000000000000005eff990c0a24a5f384119808398d1a64ce4bc5370000000000000000000000006122db054706cd0ff66301f5afc5d121644d0997000000000000000000000000000000000000000000000000000000000000004000000000000000000000000065edc65510ae691bb4f2bed5283a004e4ebd8ee30000000000000000000000006122db054706cd0ff66301f5afc5d121644d099700000000000000000000000000000000000000000000000000000000",
        "nonce": "0x31",
        "chainId": "0x66eee"
      },
      "additionalContracts": [],
      "isFixedGasLimit": false
    }
  ],
  "receipts": [
    {
      "status": "0x1",
      "cumulativeGasUsed": "0x10e51e",
      "logs": [
        {
          "address": "0x5eff990c0a24a5f384119808398d1a64ce4bc537",
          "topics": [
            "0x8c5be1e5ebec7d5bd14f71427d1e84f3dd0314c0f7b2291e5b200ac8c7c3b925",
            "0x0000000000000000000000006122db054706cd0ff66301f5afc5d121644d0997",
            "0x000000000000000000000000000000000022d473030f116ddee9f6b43ac78ba3"
          ],
          "data": "0xffffffffffffffffffffffffffffffffffffffffffffffffffffffffffffffff",
          "blockHash": "0xd6406f235923d38dc87c7a08dcb93786f44fb3a43b752dfb1fbeb46b0aaef2e1",
          "blockNumber": "0xc365755",
          "transactionHash": "0x75e79e35deadc19d376f92c45b4e10a14012be7fc7bd0751578e230b9f7a07d8",
          "transactionIndex": "0x7",
          "logIndex": "0x5",
          "removed": false
        }
      ],
      "logsBloom": "0x00000000000000000001000000000000000000000000000000000000000000000000000000000000000000000000000000000000800000000000000000200000000000000000000004004000000000000000000000000800000000000000000000000000000000000000000000000000000000000000000000000800000000000000000000000000000000000000400000000000800000000000000000000000020000000000000000000000000000000000000000000000000000000000000000800000000000000000000000000000000000000000000000000000000000000010000000000000000000000000000000000000000000000000000000000000",
      "type": "0x2",
      "transactionHash": "0x75e79e35deadc19d376f92c45b4e10a14012be7fc7bd0751578e230b9f7a07d8",
      "transactionIndex": "0x7",
      "blockHash": "0xd6406f235923d38dc87c7a08dcb93786f44fb3a43b752dfb1fbeb46b0aaef2e1",
      "blockNumber": "0xc365755",
      "gasUsed": "0x6876",
      "effectiveGasPrice": "0x6194780",
      "from": "0x6122db054706cd0ff66301f5afc5d121644d0997",
      "to": "0x5eff990c0a24a5f384119808398d1a64ce4bc537",
      "contractAddress": null,
      "gasUsedForL1": "0x0",
      "l1BlockNumber": "0x8fb229",
      "timeboosted": false
    },
    {
      "status": "0x1",
      "cumulativeGasUsed": "0x45100",
      "logs": [
        {
          "address": "0x000000000022d473030f116ddee9f6b43ac78ba3",
          "topics": [
            "0xda9fa7c1b00402c17d0161b249b1ab8bbec047c5a52207b9c112deffd817036b",
            "0x0000000000000000000000006122db054706cd0ff66301f5afc5d121644d0997",
            "0x0000000000000000000000005eff990c0a24a5f384119808398d1a64ce4bc537",
            "0x000000000000000000000000ac631556d3d4019c95769033b5e719dd77124bac"
          ],
          "data": "0x000000000000000000000000ffffffffffffffffffffffffffffffffffffffff0000000000000000000000000000000000000000000000000000ffffffffffff",
          "blockHash": "0x0baf0818d21550d9551ee13795f294d33db5309a16bb040a4bab4ed8eade45a5",
          "blockNumber": "0xc365757",
          "transactionHash": "0xd2886662c87bef147f5a836051919f4ef471aeec50007f1ecf43d0d5e9eae780",
          "transactionIndex": "0x5",
          "logIndex": "0x3",
          "removed": false
        }
      ],
      "logsBloom": "0x00010000000000000000000000000000000000000000000000000000000000000000000000000000100000000000100000000000000000000000000000080000000000000020000000000000000000000000000004000000000000000000000000000000000000000000000000000000000000000000000000000800000000000020000000000000000000000000400000000000000200000000000000000000000000000000000000000000000000000000000000000000000000080000000000800000000000000000010000000000000000000000000040000000000000000000000000000000000000000000000000000000000000000000000000000400",
      "type": "0x2",
      "transactionHash": "0xd2886662c87bef147f5a836051919f4ef471aeec50007f1ecf43d0d5e9eae780",
      "transactionIndex": "0x5",
      "blockHash": "0x0baf0818d21550d9551ee13795f294d33db5309a16bb040a4bab4ed8eade45a5",
      "blockNumber": "0xc365757",
      "gasUsed": "0x6d0e",
      "effectiveGasPrice": "0x6137b20",
      "from": "0x6122db054706cd0ff66301f5afc5d121644d0997",
      "to": "0x000000000022d473030f116ddee9f6b43ac78ba3",
      "contractAddress": null,
      "gasUsedForL1": "0x0",
      "l1BlockNumber": "0x8fb229",
      "timeboosted": false
    },
    {
      "status": "0x1",
      "cumulativeGasUsed": "0x1407a0",
      "logs": [
        {
          "address": "0x65edc65510ae691bb4f2bed5283a004e4ebd8ee3",
          "topics": [
            "0x8c5be1e5ebec7d5bd14f71427d1e84f3dd0314c0f7b2291e5b200ac8c7c3b925",
            "0x0000000000000000000000006122db054706cd0ff66301f5afc5d121644d0997",
            "0x000000000000000000000000000000000022d473030f116ddee9f6b43ac78ba3"
          ],
          "data": "0xffffffffffffffffffffffffffffffffffffffffffffffffffffffffffffffff",
          "blockHash": "0x46cf7410e040610a98ba5a304fd3bcdae6bcf1b29a57ff5590eafcfb37a2e4cf",
          "blockNumber": "0xc365759",
          "transactionHash": "0x30f6b3d8e7873c50281f8e684e17c478989e3040f0159c8a20f1001811016936",
          "transactionIndex": "0x5",
          "logIndex": "0x5",
          "removed": false
        }
      ],
      "logsBloom": "0x00000000000000000000000000000000000000000000000000000000000000000000000000000000200000000000000000000000800000000000000000200000000000000000000000004000000000000000000000000800000000000000000000000000000000000000000000000000000000000000000000000800000000000000000000000000000000000000400000000000000000000000000000000000020000000000000000000000000000000000000000000000000000000000000000800000000000000000000000000000000000000000000000000000000000000010000000000000000002000000000200000000000000000000000000000000",
      "type": "0x2",
      "transactionHash": "0x30f6b3d8e7873c50281f8e684e17c478989e3040f0159c8a20f1001811016936",
      "transactionIndex": "0x5",
      "blockHash": "0x46cf7410e040610a98ba5a304fd3bcdae6bcf1b29a57ff5590eafcfb37a2e4cf",
      "blockNumber": "0xc365759",
      "gasUsed": "0x6876",
      "effectiveGasPrice": "0x619e3c0",
      "from": "0x6122db054706cd0ff66301f5afc5d121644d0997",
      "to": "0x65edc65510ae691bb4f2bed5283a004e4ebd8ee3",
      "contractAddress": null,
      "gasUsedForL1": "0x0",
      "l1BlockNumber": "0x8fb229",
      "timeboosted": false
    },
    {
      "status": "0x1",
      "cumulativeGasUsed": "0x65983",
      "logs": [
        {
          "address": "0x000000000022d473030f116ddee9f6b43ac78ba3",
          "topics": [
            "0xda9fa7c1b00402c17d0161b249b1ab8bbec047c5a52207b9c112deffd817036b",
            "0x0000000000000000000000006122db054706cd0ff66301f5afc5d121644d0997",
            "0x00000000000000000000000065edc65510ae691bb4f2bed5283a004e4ebd8ee3",
            "0x000000000000000000000000ac631556d3d4019c95769033b5e719dd77124bac"
          ],
          "data": "0x000000000000000000000000ffffffffffffffffffffffffffffffffffffffff0000000000000000000000000000000000000000000000000000ffffffffffff",
          "blockHash": "0xcd5b34b16a0348ab0a1ddcefbdaa0fe78722ef6c06d9aeb812099c13db83ac0b",
          "blockNumber": "0xc36575b",
          "transactionHash": "0x5b4e37ad2fd42bb638a84567e30ce09771c68f0042034ef0ba40dc7c38916a8b",
          "transactionIndex": "0x5",
          "logIndex": "0x3",
          "removed": false
        }
      ],
      "logsBloom": "0x00010000000000000000000000000000000000000000000000000000000000000000000000000000100000000000000000002000000000000000000000080000000000000020000000000000000000000000000000000000000000000000000000000000010000000000000000000000000000000000000000000800000000000020000000000000000000000400400000000000000000000000000000000000000000000000000000000000000000000000000000000000000000080000000000800000000000000000010000000000000000000000000040000000000000000000000000000000000000000000000000000000000000000000000000000400",
      "type": "0x2",
      "transactionHash": "0x5b4e37ad2fd42bb638a84567e30ce09771c68f0042034ef0ba40dc7c38916a8b",
      "transactionIndex": "0x5",
      "blockHash": "0xcd5b34b16a0348ab0a1ddcefbdaa0fe78722ef6c06d9aeb812099c13db83ac0b",
      "blockNumber": "0xc36575b",
      "gasUsed": "0x6d02",
      "effectiveGasPrice": "0x61242a0",
      "from": "0x6122db054706cd0ff66301f5afc5d121644d0997",
      "to": "0x000000000022d473030f116ddee9f6b43ac78ba3",
      "contractAddress": null,
      "gasUsedForL1": "0x0",
      "l1BlockNumber": "0x8fb229",
      "timeboosted": false
    },
    {
      "status": "0x1",
      "cumulativeGasUsed": "0x148bfa",
      "logs": [
        {
          "address": "0xac631556d3d4019c95769033b5e719dd77124bac",
          "topics": [
            "0xddf252ad1be2c89b69c2b068fc378daa952ba7f163c4a11628f55a4df523b3ef",
            "0x0000000000000000000000000000000000000000000000000000000000000000",
            "0x0000000000000000000000006122db054706cd0ff66301f5afc5d121644d0997",
            "0x000000000000000000000000000000000000000000000000000000000000006b"
          ],
          "data": "0x",
          "blockHash": "0xd33e299e0400e79a3edbc0264b3287f99234e71578dba17646cc19ede162481e",
          "blockNumber": "0xc36575d",
          "transactionHash": "0x54a46fba52ebf3c813744b753e87d844cf83459a678dc879ae7a3a87831d8e2f",
          "transactionIndex": "0x5",
          "logIndex": "0x6",
          "removed": false
        },
        {
          "address": "0xfb3e0c6f74eb1a21cc1da29aec80d2dfe6c9a317",
          "topics": [
            "0xf208f4912782fd25c7f114ca3723a2d5dd6f3bcc3ac8db5af63baa85f711d5ec",
            "0xc919cd4f8c8d36abbddbd11a501d7f12cf33794d270bdbf8a7d4d87c869e1b3a",
            "0x000000000000000000000000ac631556d3d4019c95769033b5e719dd77124bac"
          ],
          "data": "0x000000000000000000000000000000000000000000000000000000000000d728000000000000000000000000000000000000000000000000000000000002abe80000000000000000000000000000000000000000000000000000004d7f403416000000000000000000000000000000000000000000000000000000000000006b",
          "blockHash": "0xd33e299e0400e79a3edbc0264b3287f99234e71578dba17646cc19ede162481e",
          "blockNumber": "0xc36575d",
          "transactionHash": "0x54a46fba52ebf3c813744b753e87d844cf83459a678dc879ae7a3a87831d8e2f",
          "transactionIndex": "0x5",
          "logIndex": "0x7",
          "removed": false
        },
        {
          "address": "0x5eff990c0a24a5f384119808398d1a64ce4bc537",
          "topics": [
            "0xddf252ad1be2c89b69c2b068fc378daa952ba7f163c4a11628f55a4df523b3ef",
            "0x0000000000000000000000006122db054706cd0ff66301f5afc5d121644d0997",
            "0x000000000000000000000000fb3e0c6f74eb1a21cc1da29aec80d2dfe6c9a317"
          ],
          "data": "0x000000000000000000000000000000000000000000000000000000003b9aca00",
          "blockHash": "0xd33e299e0400e79a3edbc0264b3287f99234e71578dba17646cc19ede162481e",
          "blockNumber": "0xc36575d",
          "transactionHash": "0x54a46fba52ebf3c813744b753e87d844cf83459a678dc879ae7a3a87831d8e2f",
          "transactionIndex": "0x5",
          "logIndex": "0x8",
          "removed": false
        },
        {
          "address": "0x65edc65510ae691bb4f2bed5283a004e4ebd8ee3",
          "topics": [
            "0xddf252ad1be2c89b69c2b068fc378daa952ba7f163c4a11628f55a4df523b3ef",
            "0x0000000000000000000000006122db054706cd0ff66301f5afc5d121644d0997",
            "0x000000000000000000000000fb3e0c6f74eb1a21cc1da29aec80d2dfe6c9a317"
          ],
          "data": "0x00000000000000000000000000000000000000000000000000005af9c6ebfe4e",
          "blockHash": "0xd33e299e0400e79a3edbc0264b3287f99234e71578dba17646cc19ede162481e",
          "blockNumber": "0xc36575d",
          "transactionHash": "0x54a46fba52ebf3c813744b753e87d844cf83459a678dc879ae7a3a87831d8e2f",
          "transactionIndex": "0x5",
          "logIndex": "0x9",
          "removed": false
        }
      ],
      "logsBloom": "0x00000040000000000001000000000008000000000020100000000000000000000000000000000000300001000000100000000000000000000000000000000040000000000020000004000008000000000000000000000008000000000000000010000000020400000000000000000800000000000000000000000810000000000000000001000000000000000000400000000000800000000000000000000000000004200000000000000000000000000000000000000000000000000000000000800002000000000000010000000000000000000400000000000000000020000000000000000000400002000000000204000000000000000000000000000004",
      "type": "0x2",
      "transactionHash": "0x54a46fba52ebf3c813744b753e87d844cf83459a678dc879ae7a3a87831d8e2f",
      "transactionIndex": "0x5",
      "blockHash": "0xd33e299e0400e79a3edbc0264b3287f99234e71578dba17646cc19ede162481e",
      "blockNumber": "0xc36575d",
      "gasUsed": "0x3abb7",
      "effectiveGasPrice": "0x614dab0",
      "from": "0x6122db054706cd0ff66301f5afc5d121644d0997",
      "to": "0xac631556d3d4019c95769033b5e719dd77124bac",
      "contractAddress": null,
      "gasUsedForL1": "0x0",
      "l1BlockNumber": "0x8fb229",
      "timeboosted": false
    }
  ],
  "libraries": [],
  "pending": [],
  "returns": {},
  "timestamp": 1760533262,
  "chain": 421614,
  "commit": "de4281e"
}