{
  "transactions": [
    {
      "hash": "0x3d91b087224dc4fa6a8ad751f3fcde4b50c8f993e42185b6388d18f11a658b78",
      "transactionType": "CALL",
      "contractName": null,
      "contractAddress": "0x65edc65510ae691bb4f2bed5283a004e4ebd8ee3",
      "function": "approve(address,uint256)",
      "arguments": [
        "0xcD8D7e10A7aA794C389d56A07d85d63E28780220",
        "115792089237316195423570985008687907853269984665640564039457584007913129639935"
      ],
      "transaction": {
        "from": "0x6122db054706cd0ff66301f5afc5d121644d0997",
        "to": "0x65edc65510ae691bb4f2bed5283a004e4ebd8ee3",
        "gas": "0x89d9",
        "value": "0x0",
        "input": "0x095ea7b3000000000000000000000000cd8d7e10a7aa794c389d56a07d85d63e28780220ffffffffffffffffffffffffffffffffffffffffffffffffffffffffffffffff",
        "nonce": "0x43",
        "chainId": "0x66eee"
      },
      "additionalContracts": [],
      "isFixedGasLimit": false
    },
    {
      "hash": "0x27ad87ec09dc5810481b9812e5b0d17b4dcca0a86bffe3949a090d9a0ed60188",
      "transactionType": "CALL",
      "contractName": null,
      "contractAddress": "0x5eff990c0a24a5f384119808398d1a64ce4bc537",
      "function": "approve(address,uint256)",
      "arguments": [
        "0xcD8D7e10A7aA794C389d56A07d85d63E28780220",
        "115792089237316195423570985008687907853269984665640564039457584007913129639935"
      ],
      "transaction": {
        "from": "0x6122db054706cd0ff66301f5afc5d121644d0997",
        "to": "0x5eff990c0a24a5f384119808398d1a64ce4bc537",
        "gas": "0x89d9",
        "value": "0x0",
        "input": "0x095ea7b3000000000000000000000000cd8d7e10a7aa794c389d56a07d85d63e28780220ffffffffffffffffffffffffffffffffffffffffffffffffffffffffffffffff",
        "nonce": "0x44",
        "chainId": "0x66eee"
      },
      "additionalContracts": [],
      "isFixedGasLimit": false
    },
    {
      "hash": "0x35e908693e32f9495bc7cda0edfc387b4003509bbf0ae7baae57e71c7bc7d6c1",
      "transactionType": "CALL",
      "contractName": null,
      "contractAddress": "0xcd8d7e10a7aa794c389d56a07d85d63e28780220",
      "function": "swapExactTokensForTokens(uint256,uint256,bool,(address,address,uint24,int24,address),bytes,address,uint256)",
      "arguments": [
        "100000",
        "0",
        "true",
        "(0x5eff990c0A24A5F384119808398d1A64cE4BC537, 0x65eDC65510AE691bb4F2BeD5283A004e4ebD8Ee3, 8388608, 60, 0x6341AFF31aA81Cb666593f2d1005226C1eBc2080)",
        "0x",
        "0x5b73C5498c1E3b4dbA84de0F1833c4a029d90519",
        "1760544427"
      ],
      "transaction": {
        "from": "0x6122db054706cd0ff66301f5afc5d121644d0997",
        "to": "0xcd8d7e10a7aa794c389d56a07d85d63e28780220",
        "gas": "0x41738",
        "value": "0x0",
        "input": "0xb1a0d57100000000000000000000000000000000000000000000000000000000000186a0000000000000000000000000000000000000000000000000000000000000000000000000000000000000000000000000000000000000000000000000000000010000000000000000000000005eff990c0a24a5f384119808398d1a64ce4bc53700000000000000000000000065edc65510ae691bb4f2bed5283a004e4ebd8ee30000000000000000000000000000000000000000000000000000000000800000000000000000000000000000000000000000000000000000000000000000003c0000000000000000000000006341aff31aa81cb666593f2d1005226c1ebc208000000000000000000000000000000000000000000000000000000000000001600000000000000000000000005b73c5498c1e3b4dba84de0f1833c4a029d905190000000000000000000000000000000000000000000000000000000068efc6ab0000000000000000000000000000000000000000000000000000000000000000",
        "nonce": "0x45",
        "chainId": "0x66eee"
      },
      "additionalContracts": [],
      "isFixedGasLimit": false
    }
  ],
  "receipts": [
    {
      "status": "0x1",
      "cumulativeGasUsed": "0x3d007",
      "logs": [
        {
          "address": "0x65edc65510ae691bb4f2bed5283a004e4ebd8ee3",
          "topics": [
            "0x8c5be1e5ebec7d5bd14f71427d1e84f3dd0314c0f7b2291e5b200ac8c7c3b925",
            "0x0000000000000000000000006122db054706cd0ff66301f5afc5d121644d0997",
            "0x000000000000000000000000cd8d7e10a7aa794c389d56a07d85d63e28780220"
          ],
          "data": "0xffffffffffffffffffffffffffffffffffffffffffffffffffffffffffffffff",
          "blockHash": "0x18c1df9565153af640d376793f826333154cc647d8a16e9872ba73c221be44d2",
          "blockNumber": "0xc370429",
          "transactionHash": "0x3d91b087224dc4fa6a8ad751f3fcde4b50c8f993e42185b6388d18f11a658b78",
          "transactionIndex": "0x2",
          "logIndex": "0x1",
          "removed": false
        }
      ],
      "logsBloom": "0x00000000000000000000000004000000000000000000000000000000000000000000000000000000200000000000000000000000000000000000000000200000000000000000000000000000000000000000000000000000000000000000000000000000000000000000000000000000000000000000000000000800000000000000000000000000000000100000400000000000000000000000000000000000020000000000000000000000000000000000000000000000000000000000000000800000000000000000000000000000000000000000000000000000000000000010000000000000000002000000000200000000000400000000000000000000",
      "type": "0x2",
      "transactionHash": "0x3d91b087224dc4fa6a8ad751f3fcde4b50c8f993e42185b6388d18f11a658b78",
      "transactionIndex": "0x2",
      "blockHash": "0x18c1df9565153af640d376793f826333154cc647d8a16e9872ba73c221be44d2",
      "blockNumber": "0xc370429",
      "gasUsed": "0x68b2",
      "effectiveGasPrice": "0x5f5e100",
      "from": "0x6122db054706cd0ff66301f5afc5d121644d0997",
      "to": "0x65edc65510ae691bb4f2bed5283a004e4ebd8ee3",
      "contractAddress": null,
      "gasUsedForL1": "0x0",
      "l1BlockNumber": "0x8fb5b3",
      "timeboosted": false
    },
    {
      "status": "0x1",
      "cumulativeGasUsed": "0x29046",
      "logs": [
        {
          "address": "0x5eff990c0a24a5f384119808398d1a64ce4bc537",
          "topics": [
            "0x8c5be1e5ebec7d5bd14f71427d1e84f3dd0314c0f7b2291e5b200ac8c7c3b925",
            "0x0000000000000000000000006122db054706cd0ff66301f5afc5d121644d0997",
            "0x000000000000000000000000cd8d7e10a7aa794c389d56a07d85d63e28780220"
          ],
          "data": "0xffffffffffffffffffffffffffffffffffffffffffffffffffffffffffffffff",
          "blockHash": "0xaf59fb8868f5fc347b644eb39652787a4c58b49a892c42172e55e33a15e3937b",
          "blockNumber": "0xc37042c",
          "transactionHash": "0x27ad87ec09dc5810481b9812e5b0d17b4dcca0a86bffe3949a090d9a0ed60188",
          "transactionIndex": "0x2",
          "logIndex": "0x3",
          "removed": false
        }
      ],
      "logsBloom": "0x00000000000000000001000004000000000000000000000000000000000000000000000000000000000000000000000000000000000000000000000000200000000000000000000004000000000000000000000000000000000000000000000000000000000000000000000000000000000000000000000000000800000000000000000000000000000000100000400000000000800000000000000000000000020000000000000000000000000000000000000000000000000000000000000000800000000000000000000000000000000000000000000000000000000000000010000000000000000000000000000000000000000400000000000000000000",
      "type": "0x2",
      "transactionHash": "0x27ad87ec09dc5810481b9812e5b0d17b4dcca0a86bffe3949a090d9a0ed60188",
      "transactionIndex": "0x2",
      "blockHash": "0xaf59fb8868f5fc347b644eb39652787a4c58b49a892c42172e55e33a15e3937b",
      "blockNumber": "0xc37042c",
      "gasUsed": "0x68b2",
      "effectiveGasPrice": "0x5f5e100",
      "from": "0x6122db054706cd0ff66301f5afc5d121644d0997",
      "to": "0x5eff990c0a24a5f384119808398d1a64ce4bc537",
      "contractAddress": null,
      "gasUsedForL1": "0x0",
      "l1BlockNumber": "0x8fb5b3",
      "timeboosted": false
    },
    {
      "status": "0x1",
      "cumulativeGasUsed": "0x143cc9",
      "logs": [
        {
          "address": "0xfb3e0c6f74eb1a21cc1da29aec80d2dfe6c9a317",
          "topics": [
            "0x40e9cecb9f5f1f1c5b9c97dec2917b7ee92e57ba5563708daca94dd84ad7112f",
            "0xbb553067bffb141fd5e65547ce61861567fee8fb9d27235e259ce5d76df2640d",
            "0x000000000000000000000000cd8d7e10a7aa794c389d56a07d85d63e28780220"
          ],
          "data": "0xfffffffffffffffffffffffffffffffffffffffffffffffffffffffffffe79600000000000000000000000000000000000000000000000000000000000017adf0000000000000000000000000000000000000000fff9f76d9a3e99a59c6e87c7000000000000000000000000000000000000000000000000000000003ecb7786fffffffffffffffffffffffffffffffffffffffffffffffffffffffffffffffe0000000000000000000000000000000000000000000000000000000000007530",
          "blockHash": "0x357d549e56af85190e4f48aa988dc9654fae13c953b44331b42bc4b65a8f2b95",
          "blockNumber": "0xc37042e",
          "transactionHash": "0x35e908693e32f9495bc7cda0edfc387b4003509bbf0ae7baae57e71c7bc7d6c1",
          "transactionIndex": "0x5",
          "logIndex": "0x12",
          "removed": false
        },
        {
          "address": "0x5eff990c0a24a5f384119808398d1a64ce4bc537",
          "topics": [
            "0xddf252ad1be2c89b69c2b068fc378daa952ba7f163c4a11628f55a4df523b3ef",
            "0x0000000000000000000000006122db054706cd0ff66301f5afc5d121644d0997",
            "0x000000000000000000000000fb3e0c6f74eb1a21cc1da29aec80d2dfe6c9a317"
          ],
          "data": "0x00000000000000000000000000000000000000000000000000000000000186a0",
          "blockHash": "0x357d549e56af85190e4f48aa988dc9654fae13c953b44331b42bc4b65a8f2b95",
          "blockNumber": "0xc37042e",
          "transactionHash": "0x35e908693e32f9495bc7cda0edfc387b4003509bbf0ae7baae57e71c7bc7d6c1",
          "transactionIndex": "0x5",
          "logIndex": "0x13",
          "removed": false
        },
        {
          "address": "0x65edc65510ae691bb4f2bed5283a004e4ebd8ee3",
          "topics": [
            "0xddf252ad1be2c89b69c2b068fc378daa952ba7f163c4a11628f55a4df523b3ef",
            "0x000000000000000000000000fb3e0c6f74eb1a21cc1da29aec80d2dfe6c9a317",
            "0x0000000000000000000000005b73c5498c1e3b4dba84de0f1833c4a029d90519"
          ],
          "data": "0x0000000000000000000000000000000000000000000000000000000000017adf",
          "blockHash": "0x357d549e56af85190e4f48aa988dc9654fae13c953b44331b42bc4b65a8f2b95",
          "blockNumber": "0xc37042e",
          "transactionHash": "0x35e908693e32f9495bc7cda0edfc387b4003509bbf0ae7baae57e71c7bc7d6c1",
          "transactionIndex": "0x5",
          "logIndex": "0x14",
          "removed": false
        }
      ],
      "logsBloom": "0x00000040000000000001000004000008000000000020000000000000000000000000000000000000200000000000000100000000040000000000000000000040000000000000002004000008000000000000000000000020000000000000000000000000000400000000000000000000008000000000000000000810000000000000000000000000000000100000400000000000800000000000000000000000000000000000000000000002000000000000000000000000000000000000200000800002000000000000000000000000000000000000000000000000000000000000000000000000004002000000000200000000000400000000000000000204",
      "type": "0x2",
      "transactionHash": "0x35e908693e32f9495bc7cda0edfc387b4003509bbf0ae7baae57e71c7bc7d6c1",
      "transactionIndex": "0x5",
      "blockHash": "0x357d549e56af85190e4f48aa988dc9654fae13c953b44331b42bc4b65a8f2b95",
      "blockNumber": "0xc37042e",
      "gasUsed": "0x30ffc",
      "effectiveGasPrice": "0x5f5e100",
      "from": "0x6122db054706cd0ff66301f5afc5d121644d0997",
      "to": "0xcd8d7e10a7aa794c389d56a07d85d63e28780220",
      "contractAddress": null,
      "gasUsedForL1": "0x0",
      "l1BlockNumber": "0x8fb5b3",
      "timeboosted": false
    }
  ],
  "libraries": [],
  "pending": [],
  "returns": {},
  "timestamp": 1760544401,
  "chain": 421614,
  "commit": "b43924e"
}