{
  "transactions": [
    {
      "hash": "0x965c9234963888729600c201737684fa676a7380a8a5ea55bb64586ad2b5aed8",
      "transactionType": "CALL",
      "contractName": null,
      "contractAddress": "0x5eff990c0a24a5f384119808398d1a64ce4bc537",
      "function": "approve(address,uint256)",
      "arguments": [
        "0x000000000022D473030F116dDEE9F6B43aC78BA3",
        "115792089237316195423570985008687907853269984665640564039457584007913129639935"
      ],
      "transaction": {
        "from": "0x6122db054706cd0ff66301f5afc5d121644d0997",
        "to": "0x5eff990c0a24a5f384119808398d1a64ce4bc537",
        "gas": "0x898b",
        "value": "0x0",
        "input": "0x095ea7b3000000000000000000000000000000000022d473030f116ddee9f6b43ac78ba3ffffffffffffffffffffffffffffffffffffffffffffffffffffffffffffffff",
        "nonce": "0x23",
        "chainId": "0x66eee"
      },
      "additionalContracts": [],
      "isFixedGasLimit": false
    },
    {
      "hash": "0x8ef3d828a83dcbfbc0d10e5612e55ca3997c21ecdce82a50233af60cc6df65dc",
      "transactionType": "CALL",
      "contractName": null,
      "contractAddress": "0x000000000022d473030f116ddee9f6b43ac78ba3",
      "function": "approve(address,address,uint160,uint48)",
      "arguments": [
        "0x5eff990c0A24A5F384119808398d1A64cE4BC537",
        "0xAc631556d3d4019C95769033B5E719dD77124BAc",
        "1461501637330902918203684832716283019655932542975",
        "281474976710655"
      ],
      "transaction": {
        "from": "0x6122db054706cd0ff66301f5afc5d121644d0997",
        "to": "0x000000000022d473030f116ddee9f6b43ac78ba3",
        "gas": "0x8f87",
        "value": "0x0",
        "input": "0x87517c450000000000000000000000005eff990c0a24a5f384119808398d1a64ce4bc537000000000000000000000000ac631556d3d4019c95769033b5e719dd77124bac000000000000000000000000ffffffffffffffffffffffffffffffffffffffff0000000000000000000000000000000000000000000000000000ffffffffffff",
        "nonce": "0x24",
        "chainId": "0x66eee"
      },
      "additionalContracts": [],
      "isFixedGasLimit": false
    },
    {
      "hash": "0x8d81e481fde19d00c24212a97b8b52a994c31e4537204fa422a91367f1df8a47",
      "transactionType": "CALL",
      "contractName": null,
      "contractAddress": "0x65edc65510ae691bb4f2bed5283a004e4ebd8ee3",
      "function": "approve(address,uint256)",
      "arguments": [
        "0x000000000022D473030F116dDEE9F6B43aC78BA3",
        "115792089237316195423570985008687907853269984665640564039457584007913129639935"
      ],
      "transaction": {
        "from": "0x6122db054706cd0ff66301f5afc5d121644d0997",
        "to": "0x65edc65510ae691bb4f2bed5283a004e4ebd8ee3",
        "gas": "0x898b",
        "value": "0x0",
        "input": "0x095ea7b3000000000000000000000000000000000022d473030f116ddee9f6b43ac78ba3ffffffffffffffffffffffffffffffffffffffffffffffffffffffffffffffff",
        "nonce": "0x25",
        "chainId": "0x66eee"
      },
      "additionalContracts": [],
      "isFixedGasLimit": false
    },
    {
      "hash": "0xdc45e74e26f65318fc8d4e0e9e0dd030dc84eb2d53384672be9c3514443e6de0",
      "transactionType": "CALL",
      "contractName": null,
      "contractAddress": "0x000000000022d473030f116ddee9f6b43ac78ba3",
      "function": "approve(address,address,uint160,uint48)",
      "arguments": [
        "0x65eDC65510AE691bb4F2BeD5283A004e4ebD8Ee3",
        "0xAc631556d3d4019C95769033B5E719dD77124BAc",
        "1461501637330902918203684832716283019655932542975",
        "281474976710655"
      ],
      "transaction": {
        "from": "0x6122db054706cd0ff66301f5afc5d121644d0997",
        "to": "0x000000000022d473030f116ddee9f6b43ac78ba3",
        "gas": "0x8f77",
        "value": "0x0",
        "input": "0x87517c4500000000000000000000000065edc65510ae691bb4f2bed5283a004e4ebd8ee3000000000000000000000000ac631556d3d4019c95769033b5e719dd77124bac000000000000000000000000ffffffffffffffffffffffffffffffffffffffff0000000000000000000000000000000000000000000000000000ffffffffffff",
        "nonce": "0x26",
        "chainId": "0x66eee"
      },
      "additionalContracts": [],
      "isFixedGasLimit": false
    },
    {
      "hash": "0xbd59e940a84bea9bbb206283638988d89822f31bbb4826f8215d4758216c8340",
      "transactionType": "CALL",
      "contractName": null,
      "contractAddress": "0xac631556d3d4019c95769033b5e719dd77124bac",
      "function": "multicall(bytes[])",
      "arguments": [
        "[0xf70204050000000000000000000000005eff990c0a24a5f384119808398d1a64ce4bc53700000000000000000000000065edc65510ae691bb4f2bed5283a004e4ebd8ee30000000000000000000000000000000000000000000000000000000000800000000000000000000000000000000000000000000000000000000000000000003c000000000000000000000000e1ddfc178fb124178441174604c2d9dc1cd32080000000000000000000000000000000000000000100000000000000000000000000000000000000000000000000000000000000000000000000000000000000e00000000000000000000000000000000000000000000000000000000000000000, 0xdd46508f00000000000000000000000000000000000000000000000000000000000000400000000000000000000000000000000000000000000000000000000068ef97040000000000000000000000000000000000000000000000000000000000000400000000000000000000000000000000000000000000000000000000000000004000000000000000000000000000000000000000000000000000000000000000800000000000000000000000000000000000000000000000000000000000000004020d14140000000000000000000000000000000000000000000000000000000000000000000000000000000000000000000000000000000000000000000000040000000000000000000000000000000000000000000000000000000000000080000000000000000000000000000000000000000000000000000000000000024000000000000000000000000000000000000000000000000000000000000002a0000000000000000000000000000000000000000000000000000000000000030000000000000000000000000000000000000000000000000000000000000001a00000000000000000000000005eff990c0a24a5f384119808398d1a64ce4bc53700000000000000000000000065edc65510ae691bb4f2bed5283a004e4ebd8ee30000000000000000000000000000000000000000000000000000000000800000000000000000000000000000000000000000000000000000000000000000003c000000000000000000000000e1ddfc178fb124178441174604c2d9dc1cd32080ffffffffffffffffffffffffffffffffffffffffffffffffffffffffffff5038000000000000000000000000000000000000000000000000000000000000afc80000000000000000000000000000000000000000000000000000000000110e8700000000000000000000000000000000000000000000000000000000000f42410000000000000000000000000000000000000000000000000de0b6b3a76400010000000000000000000000006122db054706cd0ff66301f5afc5d121644d09970000000000000000000000000000000000000000000000000000000000000180000000000000000000000000000000000000000000000000000000000000000000000000000000000000000000000000000000000000000000000000000000400000000000000000000000005eff990c0a24a5f384119808398d1a64ce4bc53700000000000000000000000065edc65510ae691bb4f2bed5283a004e4ebd8ee300000000000000000000000000000000000000000000000000000000000000400000000000000000000000005eff990c0a24a5f384119808398d1a64ce4bc5370000000000000000000000006122db054706cd0ff66301f5afc5d121644d0997000000000000000000000000000000000000000000000000000000000000004000000000000000000000000065edc65510ae691bb4f2bed5283a004e4ebd8ee30000000000000000000000006122db054706cd0ff66301f5afc5d121644d0997]"
      ],
      "transaction": {
        "from": "0x6122db054706cd0ff66301f5afc5d121644d0997",
        "to": "0xac631556d3d4019c95769033b5e719dd77124bac",
        "gas": "0x796f3",
        "value": "0x0",
        "input": "0xac9650d800000000000000000000000000000000000000000000000000000000000000200000000000000000000000000000000000000000000000000000000000000002000000000000000000000000000000000000000000000000000000000000004000000000000000000000000000000000000000000000000000000000000001800000000000000000000000000000000000000000000000000000000000000104f70204050000000000000000000000005eff990c0a24a5f384119808398d1a64ce4bc53700000000000000000000000065edc65510ae691bb4f2bed5283a004e4ebd8ee30000000000000000000000000000000000000000000000000000000000800000000000000000000000000000000000000000000000000000000000000000003c000000000000000000000000e1ddfc178fb124178441174604c2d9dc1cd32080000000000000000000000000000000000000000100000000000000000000000000000000000000000000000000000000000000000000000000000000000000e00000000000000000000000000000000000000000000000000000000000000000000000000000000000000000000000000000000000000000000000000000000000000000000000000000000000000000000000000000000000000464dd46508f00000000000000000000000000000000000000000000000000000000000000400000000000000000000000000000000000000000000000000000000068ef97040000000000000000000000000000000000000000000000000000000000000400000000000000000000000000000000000000000000000000000000000000004000000000000000000000000000000000000000000000000000000000000000800000000000000000000000000000000000000000000000000000000000000004020d14140000000000000000000000000000000000000000000000000000000000000000000000000000000000000000000000000000000000000000000000040000000000000000000000000000000000000000000000000000000000000080000000000000000000000000000000000000000000000000000000000000024000000000000000000000000000000000000000000000000000000000000002a0000000000000000000000000000000000000000000000000000000000000030000000000000000000000000000000000000000000000000000000000000001a00000000000000000000000005eff990c0a24a5f384119808398d1a64ce4bc53700000000000000000000000065edc65510ae691bb4f2bed5283a004e4ebd8ee30000000000000000000000000000000000000000000000000000000000800000000000000000000000000000000000000000000000000000000000000000003c000000000000000000000000e1ddfc178fb124178441174604c2d9dc1cd32080ffffffffffffffffffffffffffffffffffffffffffffffffffffffffffff5038000000000000000000000000000000000000000000000000000000000000afc80000000000000000000000000000000000000000000000000000000000110e8700000000000000000000000000000000000000000000000000000000000f42410000000000000000000000000000000000000000000000000de0b6b3a76400010000000000000000000000006122db054706cd0ff66301f5afc5d121644d09970000000000000000000000000000000000000000000000000000000000000180000000000000000000000000000000000000000000000000000000000000000000000000000000000000000000000000000000000000000000000000000000400000000000000000000000005eff990c0a24a5f384119808398d1a64ce4bc53700000000000000000000000065edc65510ae691bb4f2bed5283a004e4ebd8ee300000000000000000000000000000000000000000000000000000000000000400000000000000000000000005eff990c0a24a5f384119808398d1a64ce4bc5370000000000000000000000006122db054706cd0ff66301f5afc5d121644d0997000000000000000000000000000000000000000000000000000000000000004000000000000000000000000065edc65510ae691bb4f2bed5283a004e4ebd8ee30000000000000000000000006122db054706cd0ff66301f5afc5d121644d099700000000000000000000000000000000000000000000000000000000",
        "nonce": "0x27",
        "chainId": "0x66eee"
      },
      "additionalContracts": [],
      "isFixedGasLimit": false
    }
  ],
  "receipts": [
    {
      "status": "0x1",
      "cumulativeGasUsed": "0x6876",
      "logs": [
        {
          "address": "0x5eff990c0a24a5f384119808398d1a64ce4bc537",
          "topics": [
            "0x8c5be1e5ebec7d5bd14f71427d1e84f3dd0314c0f7b2291e5b200ac8c7c3b925",
            "0x0000000000000000000000006122db054706cd0ff66301f5afc5d121644d0997",
            "0x000000000000000000000000000000000022d473030f116ddee9f6b43ac78ba3"
          ],
          "data": "0xffffffffffffffffffffffffffffffffffffffffffffffffffffffffffffffff",
          "blockHash": "0xd46156f344fa993521e48a14d139cb933c0c685a489931724eaf7d264a0be92d",
          "blockNumber": "0xc360f1f",
          "transactionHash": "0x965c9234963888729600c201737684fa676a7380a8a5ea55bb64586ad2b5aed8",
          "transactionIndex": "0x1",
          "logIndex": "0x0",
          "removed": false
        }
      ],
      "logsBloom": "0x00000000000000000001000000000000000000000000000000000000000000000000000000000000000000000000000000000000800000000000000000200000000000000000000004004000000000000000000000000800000000000000000000000000000000000000000000000000000000000000000000000800000000000000000000000000000000000000400000000000800000000000000000000000020000000000000000000000000000000000000000000000000000000000000000800000000000000000000000000000000000000000000000000000000000000010000000000000000000000000000000000000000000000000000000000000",
      "type": "0x2",
      "transactionHash": "0x965c9234963888729600c201737684fa676a7380a8a5ea55bb64586ad2b5aed8",
      "transactionIndex": "0x1",
      "blockHash": "0xd46156f344fa993521e48a14d139cb933c0c685a489931724eaf7d264a0be92d",
      "blockNumber": "0xc360f1f",
      "gasUsed": "0x6876",
      "effectiveGasPrice": "0x5f5e100",
      "from": "0x6122db054706cd0ff66301f5afc5d121644d0997",
      "to": "0x5eff990c0a24a5f384119808398d1a64ce4bc537",
      "contractAddress": null,
      "gasUsedForL1": "0x0",
      "l1BlockNumber": "0x8fb0a7",
      "timeboosted": false
    },
    {
      "status": "0x1",
      "cumulativeGasUsed": "0x86615",
      "logs": [
        {
          "address": "0x000000000022d473030f116ddee9f6b43ac78ba3",
          "topics": [
            "0xda9fa7c1b00402c17d0161b249b1ab8bbec047c5a52207b9c112deffd817036b",
            "0x0000000000000000000000006122db054706cd0ff66301f5afc5d121644d0997",
            "0x0000000000000000000000005eff990c0a24a5f384119808398d1a64ce4bc537",
            "0x000000000000000000000000ac631556d3d4019c95769033b5e719dd77124bac"
          ],
          "data": "0x000000000000000000000000ffffffffffffffffffffffffffffffffffffffff0000000000000000000000000000000000000000000000000000ffffffffffff",
          "blockHash": "0x34552f871fee7f5f3ee7b4c3cb882cb4b6c5e2d48141de59fedf50a252be494c",
          "blockNumber": "0xc360f21",
          "transactionHash": "0x8ef3d828a83dcbfbc0d10e5612e55ca3997c21ecdce82a50233af60cc6df65dc",
          "transactionIndex": "0x6",
          "logIndex": "0x7",
          "removed": false
        }
      ],
      "logsBloom": "0x00010000000000000000000000000000000000000000000000000000000000000000000000000000100000000000100000000000000000000000000000080000000000000020000000000000000000000000000004000000000000000000000000000000000000000000000000000000000000000000000000000800000000000020000000000000000000000000400000000000000200000000000000000000000000000000000000000000000000000000000000000000000000080000000000800000000000000000010000000000000000000000000040000000000000000000000000000000000000000000000000000000000000000000000000000400",
      "type": "0x2",
      "transactionHash": "0x8ef3d828a83dcbfbc0d10e5612e55ca3997c21ecdce82a50233af60cc6df65dc",
      "transactionIndex": "0x6",
      "blockHash": "0x34552f871fee7f5f3ee7b4c3cb882cb4b6c5e2d48141de59fedf50a252be494c",
      "blockNumber": "0xc360f21",
      "gasUsed": "0x6d0e",
      "effectiveGasPrice": "0x5f5e100",
      "from": "0x6122db054706cd0ff66301f5afc5d121644d0997",
      "to": "0x000000000022d473030f116ddee9f6b43ac78ba3",
      "contractAddress": null,
      "gasUsedForL1": "0x0",
      "l1BlockNumber": "0x8fb0a7",
      "timeboosted": false
    },
    {
      "status": "0x1",
      "cumulativeGasUsed": "0x8ea03",
      "logs": [
        {
          "address": "0x65edc65510ae691bb4f2bed5283a004e4ebd8ee3",
          "topics": [
            "0x8c5be1e5ebec7d5bd14f71427d1e84f3dd0314c0f7b2291e5b200ac8c7c3b925",
            "0x0000000000000000000000006122db054706cd0ff66301f5afc5d121644d0997",
            "0x000000000000000000000000000000000022d473030f116ddee9f6b43ac78ba3"
          ],
          "data": "0xffffffffffffffffffffffffffffffffffffffffffffffffffffffffffffffff",
          "blockHash": "0x84c97344b9e4a4e11dbb3db65076a3815507dd07cb1914bc328b3140068835a0",
          "blockNumber": "0xc360f23",
          "transactionHash": "0x8d81e481fde19d00c24212a97b8b52a994c31e4537204fa422a91367f1df8a47",
          "transactionIndex": "0x6",
          "logIndex": "0x9",
          "removed": false
        }
      ],
      "logsBloom": "0x00000000000000000000000000000000000000000000000000000000000000000000000000000000200000000000000000000000800000000000000000200000000000000000000000004000000000000000000000000800000000000000000000000000000000000000000000000000000000000000000000000800000000000000000000000000000000000000400000000000000000000000000000000000020000000000000000000000000000000000000000000000000000000000000000800000000000000000000000000000000000000000000000000000000000000010000000000000000002000000000200000000000000000000000000000000",
      "type": "0x2",
      "transactionHash": "0x8d81e481fde19d00c24212a97b8b52a994c31e4537204fa422a91367f1df8a47",
      "transactionIndex": "0x6",
      "blockHash": "0x84c97344b9e4a4e11dbb3db65076a3815507dd07cb1914bc328b3140068835a0",
      "blockNumber": "0xc360f23",
      "gasUsed": "0x6876",
      "effectiveGasPrice": "0x5f5e100",
      "from": "0x6122db054706cd0ff66301f5afc5d121644d0997",
      "to": "0x65edc65510ae691bb4f2bed5283a004e4ebd8ee3",
      "contractAddress": null,
      "gasUsedForL1": "0x0",
      "l1BlockNumber": "0x8fb0a7",
      "timeboosted": false
    },
    {
      "status": "0x1",
      "cumulativeGasUsed": "0x6a15d",
      "logs": [
        {
          "address": "0x000000000022d473030f116ddee9f6b43ac78ba3",
          "topics": [
            "0xda9fa7c1b00402c17d0161b249b1ab8bbec047c5a52207b9c112deffd817036b",
            "0x0000000000000000000000006122db054706cd0ff66301f5afc5d121644d0997",
            "0x00000000000000000000000065edc65510ae691bb4f2bed5283a004e4ebd8ee3",
            "0x000000000000000000000000ac631556d3d4019c95769033b5e719dd77124bac"
          ],
          "data": "0x000000000000000000000000ffffffffffffffffffffffffffffffffffffffff0000000000000000000000000000000000000000000000000000ffffffffffff",
          "blockHash": "0x9167222b713568a6dcc2528119c128470da2a34a0ac68b8b74491434331a6f8e",
          "blockNumber": "0xc360f25",
          "transactionHash": "0xdc45e74e26f65318fc8d4e0e9e0dd030dc84eb2d53384672be9c3514443e6de0",
          "transactionIndex": "0x6",
          "logIndex": "0x2",
          "removed": false
        }
      ],
      "logsBloom": "0x00010000000000000000000000000000000000000000000000000000000000000000000000000000100000000000000000002000000000000000000000080000000000000020000000000000000000000000000000000000000000000000000000000000010000000000000000000000000000000000000000000800000000000020000000000000000000000400400000000000000000000000000000000000000000000000000000000000000000000000000000000000000000080000000000800000000000000000010000000000000000000000000040000000000000000000000000000000000000000000000000000000000000000000000000000400",
      "type": "0x2",
      "transactionHash": "0xdc45e74e26f65318fc8d4e0e9e0dd030dc84eb2d53384672be9c3514443e6de0",
      "transactionIndex": "0x6",
      "blockHash": "0x9167222b713568a6dcc2528119c128470da2a34a0ac68b8b74491434331a6f8e",
      "blockNumber": "0xc360f25",
      "gasUsed": "0x6d02",
      "effectiveGasPrice": "0x5f5e100",
      "from": "0x6122db054706cd0ff66301f5afc5d121644d0997",
      "to": "0x000000000022d473030f116ddee9f6b43ac78ba3",
      "contractAddress": null,
      "gasUsedForL1": "0x0",
      "l1BlockNumber": "0x8fb0a7",
      "timeboosted": false
    },
    {
      "status": "0x1",
      "cumulativeGasUsed": "0x64ea7",
      "logs": [
        {
          "address": "0xac631556d3d4019c95769033b5e719dd77124bac",
          "topics": [
            "0xddf252ad1be2c89b69c2b068fc378daa952ba7f163c4a11628f55a4df523b3ef",
            "0x0000000000000000000000000000000000000000000000000000000000000000",
            "0x0000000000000000000000006122db054706cd0ff66301f5afc5d121644d0997",
            "0x0000000000000000000000000000000000000000000000000000000000000069"
          ],
          "data": "0x",
          "blockHash": "0x1a80cdf8ab593f3c95c00f6489c849895d65174b1fa823677281dfc15ea797c5",
          "blockNumber": "0xc360f27",
          "transactionHash": "0xbd59e940a84bea9bbb206283638988d89822f31bbb4826f8215d4758216c8340",
          "transactionIndex": "0x2",
          "logIndex": "0x0",
          "removed": false
        },
        {
          "address": "0xfb3e0c6f74eb1a21cc1da29aec80d2dfe6c9a317",
          "topics": [
            "0xf208f4912782fd25c7f114ca3723a2d5dd6f3bcc3ac8db5af63baa85f711d5ec",
            "0xc919cd4f8c8d36abbddbd11a501d7f12cf33794d270bdbf8a7d4d87c869e1b3a",
            "0x000000000000000000000000ac631556d3d4019c95769033b5e719dd77124bac"
          ],
          "data": "0xffffffffffffffffffffffffffffffffffffffffffffffffffffffffffff5038000000000000000000000000000000000000000000000000000000000000afc80000000000000000000000000000000000000000000000000000000000110e870000000000000000000000000000000000000000000000000000000000000069",
          "blockHash": "0x1a80cdf8ab593f3c95c00f6489c849895d65174b1fa823677281dfc15ea797c5",
          "blockNumber": "0xc360f27",
          "transactionHash": "0xbd59e940a84bea9bbb206283638988d89822f31bbb4826f8215d4758216c8340",
          "transactionIndex": "0x2",
          "logIndex": "0x1",
          "removed": false
        },
        {
          "address": "0x65edc65510ae691bb4f2bed5283a004e4ebd8ee3",
          "topics": [
            "0xddf252ad1be2c89b69c2b068fc378daa952ba7f163c4a11628f55a4df523b3ef",
            "0x0000000000000000000000006122db054706cd0ff66301f5afc5d121644d0997",
            "0x000000000000000000000000fb3e0c6f74eb1a21cc1da29aec80d2dfe6c9a317"
          ],
          "data": "0x0000000000000000000000000000000000000000000000000000000000a00385",
          "blockHash": "0x1a80cdf8ab593f3c95c00f6489c849895d65174b1fa823677281dfc15ea797c5",
          "blockNumber": "0xc360f27",
          "transactionHash": "0xbd59e940a84bea9bbb206283638988d89822f31bbb4826f8215d4758216c8340",
          "transactionIndex": "0x2",
          "logIndex": "0x2",
          "removed": false
        }
      ],
      "logsBloom": "0x00000040000000000010000000000008000000000020100000000000000000000000000000000000300001000002000000000000000000000000000000000040000000000020000000000008000000000000000000000000000000000000000010000000020400000000000000000800000000000000000000000810000000000000000001000000000000000000400000000000000000000000000000000000000004200000000000000000000000000000000000000000000000000000000000800002000000000000010000000000000000000400000000000000000020000000000000000000400002000000000204000000000000000000400000000004",
      "type": "0x2",
      "transactionHash": "0xbd59e940a84bea9bbb206283638988d89822f31bbb4826f8215d4758216c8340",
      "transactionIndex": "0x2",
      "blockHash": "0x1a80cdf8ab593f3c95c00f6489c849895d65174b1fa823677281dfc15ea797c5",
      "blockNumber": "0xc360f27",
      "gasUsed": "0x59f9c",
      "effectiveGasPrice": "0x5f5e100",
      "from": "0x6122db054706cd0ff66301f5afc5d121644d0997",
      "to": "0xac631556d3d4019c95769033b5e719dd77124bac",
      "contractAddress": null,
      "gasUsedForL1": "0x0",
      "l1BlockNumber": "0x8fb0a7",
      "timeboosted": false
    }
  ],
  "libraries": [],
  "pending": [],
  "returns": {},
  "timestamp": 1760528633,
  "chain": 421614,
  "commit": "de4281e"
}