{
  "transactions": [
    {
      "hash": "0x75d8cada774e7a76e2be63ff8ac87e16d6760e846069f4a580d166e3aff3c327",
      "transactionType": "CALL",
      "contractName": null,
      "contractAddress": "0x5eff990c0a24a5f384119808398d1a64ce4bc537",
      "function": "approve(address,uint256)",
      "arguments": [
        "0x000000000022D473030F116dDEE9F6B43aC78BA3",
        "115792089237316195423570985008687907853269984665640564039457584007913129639935"
      ],
      "transaction": {
        "from": "0x6122db054706cd0ff66301f5afc5d121644d0997",
        "to": "0x5eff990c0a24a5f384119808398d1a64ce4bc537",
        "gas": "0x898b",
        "value": "0x0",
        "input": "0x095ea7b3000000000000000000000000000000000022d473030f116ddee9f6b43ac78ba3ffffffffffffffffffffffffffffffffffffffffffffffffffffffffffffffff",
        "nonce": "0x16",
        "chainId": "0x66eee"
      },
      "additionalContracts": [],
      "isFixedGasLimit": false
    },
    {
      "hash": "0xa1501047e85f897768b52b74503370778fd1da528cfd9c23d189376682ca5fbf",
      "transactionType": "CALL",
      "contractName": null,
      "contractAddress": "0x000000000022d473030f116ddee9f6b43ac78ba3",
      "function": "approve(address,address,uint160,uint48)",
      "arguments": [
        "0x5eff990c0A24A5F384119808398d1A64cE4BC537",
        "0xAc631556d3d4019C95769033B5E719dD77124BAc",
        "1461501637330902918203684832716283019655932542975",
        "281474976710655"
      ],
      "transaction": {
        "from": "0x6122db054706cd0ff66301f5afc5d121644d0997",
        "to": "0x000000000022d473030f116ddee9f6b43ac78ba3",
        "gas": "0x9dc7",
        "value": "0x0",
        "input": "0x87517c450000000000000000000000005eff990c0a24a5f384119808398d1a64ce4bc537000000000000000000000000ac631556d3d4019c95769033b5e719dd77124bac000000000000000000000000ffffffffffffffffffffffffffffffffffffffff0000000000000000000000000000000000000000000000000000ffffffffffff",
        "nonce": "0x17",
        "chainId": "0x66eee"
      },
      "additionalContracts": [],
      "isFixedGasLimit": false
    },
    {
      "hash": "0xb8f9fba2629200de8243f88644b11f0f5e83cfff6f6c8553870712e976ecb057",
      "transactionType": "CALL",
      "contractName": null,
      "contractAddress": "0x65edc65510ae691bb4f2bed5283a004e4ebd8ee3",
      "function": "approve(address,uint256)",
      "arguments": [
        "0x000000000022D473030F116dDEE9F6B43aC78BA3",
        "115792089237316195423570985008687907853269984665640564039457584007913129639935"
      ],
      "transaction": {
        "from": "0x6122db054706cd0ff66301f5afc5d121644d0997",
        "to": "0x65edc65510ae691bb4f2bed5283a004e4ebd8ee3",
        "gas": "0x898b",
        "value": "0x0",
        "input": "0x095ea7b3000000000000000000000000000000000022d473030f116ddee9f6b43ac78ba3ffffffffffffffffffffffffffffffffffffffffffffffffffffffffffffffff",
        "nonce": "0x18",
        "chainId": "0x66eee"
      },
      "additionalContracts": [],
      "isFixedGasLimit": false
    },
    {
      "hash": "0x1698718b8fd0ccbc3454af316cef08f552ce881e5cb9cf9798d90d2a81a12419",
      "transactionType": "CALL",
      "contractName": null,
      "contractAddress": "0x000000000022d473030f116ddee9f6b43ac78ba3",
      "function": "approve(address,address,uint160,uint48)",
      "arguments": [
        "0x65eDC65510AE691bb4F2BeD5283A004e4ebD8Ee3",
        "0xAc631556d3d4019C95769033B5E719dD77124BAc",
        "1461501637330902918203684832716283019655932542975",
        "281474976710655"
      ],
      "transaction": {
        "from": "0x6122db054706cd0ff66301f5afc5d121644d0997",
        "to": "0x000000000022d473030f116ddee9f6b43ac78ba3",
        "gas": "0x9db7",
        "value": "0x0",
        "input": "0x87517c4500000000000000000000000065edc65510ae691bb4f2bed5283a004e4ebd8ee3000000000000000000000000ac631556d3d4019c95769033b5e719dd77124bac000000000000000000000000ffffffffffffffffffffffffffffffffffffffff0000000000000000000000000000000000000000000000000000ffffffffffff",
        "nonce": "0x19",
        "chainId": "0x66eee"
      },
      "additionalContracts": [],
      "isFixedGasLimit": false
    },
    {
      "hash": "0xb85e36003af4fee146e37aec62a8daae99a6089a465993a8257fd4007f3acafb",
      "transactionType": "CALL",
      "contractName": null,
      "contractAddress": "0xac631556d3d4019c95769033b5e719dd77124bac",
      "function": "multicall(bytes[])",
      "arguments": [
        "[0xf70204050000000000000000000000005eff990c0a24a5f384119808398d1a64ce4bc53700000000000000000000000065edc65510ae691bb4f2bed5283a004e4ebd8ee30000000000000000000000000000000000000000000000000000000000000bb8000000000000000000000000000000000000000000000000000000000000003c0000000000000000000000000000000000000000000000000000000000000000000000000000000000000000000000000000000100000000000000000000000000000000000000000000000000000000000000000000000000000000000000e00000000000000000000000000000000000000000000000000000000000000000, 0xdd46508f00000000000000000000000000000000000000000000000000000000000000400000000000000000000000000000000000000000000000000000000068ef79690000000000000000000000000000000000000000000000000000000000000400000000000000000000000000000000000000000000000000000000000000004000000000000000000000000000000000000000000000000000000000000000800000000000000000000000000000000000000000000000000000000000000004020d14140000000000000000000000000000000000000000000000000000000000000000000000000000000000000000000000000000000000000000000000040000000000000000000000000000000000000000000000000000000000000080000000000000000000000000000000000000000000000000000000000000024000000000000000000000000000000000000000000000000000000000000002a0000000000000000000000000000000000000000000000000000000000000030000000000000000000000000000000000000000000000000000000000000001a00000000000000000000000005eff990c0a24a5f384119808398d1a64ce4bc53700000000000000000000000065edc65510ae691bb4f2bed5283a004e4ebd8ee30000000000000000000000000000000000000000000000000000000000000bb8000000000000000000000000000000000000000000000000000000000000003c0000000000000000000000000000000000000000000000000000000000000000ffffffffffffffffffffffffffffffffffffffffffffffffffffffffffff5038000000000000000000000000000000000000000000000000000000000000afc80000000000000000000000000000000000000000000000000000000000110e8700000000000000000000000000000000000000000000000000000000000f42410000000000000000000000000000000000000000000000000de0b6b3a76400010000000000000000000000006122db054706cd0ff66301f5afc5d121644d09970000000000000000000000000000000000000000000000000000000000000180000000000000000000000000000000000000000000000000000000000000000000000000000000000000000000000000000000000000000000000000000000400000000000000000000000005eff990c0a24a5f384119808398d1a64ce4bc53700000000000000000000000065edc65510ae691bb4f2bed5283a004e4ebd8ee300000000000000000000000000000000000000000000000000000000000000400000000000000000000000005eff990c0a24a5f384119808398d1a64ce4bc5370000000000000000000000006122db054706cd0ff66301f5afc5d121644d0997000000000000000000000000000000000000000000000000000000000000004000000000000000000000000065edc65510ae691bb4f2bed5283a004e4ebd8ee30000000000000000000000006122db054706cd0ff66301f5afc5d121644d0997]"
      ],
      "transaction": {
        "from": "0x6122db054706cd0ff66301f5afc5d121644d0997",
        "to": "0xac631556d3d4019c95769033b5e719dd77124bac",
        "gas": "0xa6969",
        "value": "0x0",
        "input": "0xac9650d800000000000000000000000000000000000000000000000000000000000000200000000000000000000000000000000000000000000000000000000000000002000000000000000000000000000000000000000000000000000000000000004000000000000000000000000000000000000000000000000000000000000001800000000000000000000000000000000000000000000000000000000000000104f70204050000000000000000000000005eff990c0a24a5f384119808398d1a64ce4bc53700000000000000000000000065edc65510ae691bb4f2bed5283a004e4ebd8ee30000000000000000000000000000000000000000000000000000000000000bb8000000000000000000000000000000000000000000000000000000000000003c0000000000000000000000000000000000000000000000000000000000000000000000000000000000000000000000000000000100000000000000000000000000000000000000000000000000000000000000000000000000000000000000e00000000000000000000000000000000000000000000000000000000000000000000000000000000000000000000000000000000000000000000000000000000000000000000000000000000000000000000000000000000000000464dd46508f00000000000000000000000000000000000000000000000000000000000000400000000000000000000000000000000000000000000000000000000068ef79690000000000000000000000000000000000000000000000000000000000000400000000000000000000000000000000000000000000000000000000000000004000000000000000000000000000000000000000000000000000000000000000800000000000000000000000000000000000000000000000000000000000000004020d14140000000000000000000000000000000000000000000000000000000000000000000000000000000000000000000000000000000000000000000000040000000000000000000000000000000000000000000000000000000000000080000000000000000000000000000000000000000000000000000000000000024000000000000000000000000000000000000000000000000000000000000002a0000000000000000000000000000000000000000000000000000000000000030000000000000000000000000000000000000000000000000000000000000001a00000000000000000000000005eff990c0a24a5f384119808398d1a64ce4bc53700000000000000000000000065edc65510ae691bb4f2bed5283a004e4ebd8ee30000000000000000000000000000000000000000000000000000000000000bb8000000000000000000000000000000000000000000000000000000000000003c0000000000000000000000000000000000000000000000000000000000000000ffffffffffffffffffffffffffffffffffffffffffffffffffffffffffff5038000000000000000000000000000000000000000000000000000000000000afc80000000000000000000000000000000000000000000000000000000000110e8700000000000000000000000000000000000000000000000000000000000f42410000000000000000000000000000000000000000000000000de0b6b3a76400010000000000000000000000006122db054706cd0ff66301f5afc5d121644d09970000000000000000000000000000000000000000000000000000000000000180000000000000000000000000000000000000000000000000000000000000000000000000000000000000000000000000000000000000000000000000000000400000000000000000000000005eff990c0a24a5f384119808398d1a64ce4bc53700000000000000000000000065edc65510ae691bb4f2bed5283a004e4ebd8ee300000000000000000000000000000000000000000000000000000000000000400000000000000000000000005eff990c0a24a5f384119808398d1a64ce4bc5370000000000000000000000006122db054706cd0ff66301f5afc5d121644d0997000000000000000000000000000000000000000000000000000000000000004000000000000000000000000065edc65510ae691bb4f2bed5283a004e4ebd8ee30000000000000000000000006122db054706cd0ff66301f5afc5d121644d099700000000000000000000000000000000000000000000000000000000",
        "nonce": "0x1a",
        "chainId": "0x66eee"
      },
      "additionalContracts": [],
      "isFixedGasLimit": false
    }
  ],
  "receipts": [
    {
      "status": "0x1",
      "cumulativeGasUsed": "0x64250f",
      "logs": [
        {
          "address": "0x5eff990c0a24a5f384119808398d1a64ce4bc537",
          "topics": [
            "0x8c5be1e5ebec7d5bd14f71427d1e84f3dd0314c0f7b2291e5b200ac8c7c3b925",
            "0x0000000000000000000000006122db054706cd0ff66301f5afc5d121644d0997",
            "0x000000000000000000000000000000000022d473030f116ddee9f6b43ac78ba3"
          ],
          "data": "0xffffffffffffffffffffffffffffffffffffffffffffffffffffffffffffffff",
          "blockHash": "0x21337b43ce3bb26390a6d719d638db3fe9d6a6d5145d48ac30e4e656a800e593",
          "blockNumber": "0xc3598d0",
          "transactionHash": "0x75d8cada774e7a76e2be63ff8ac87e16d6760e846069f4a580d166e3aff3c327",
          "transactionIndex": "0x7",
          "logIndex": "0xa",
          "removed": false
        }
      ],
      "logsBloom": "0x00000000000000000001000000000000000000000000000000000000000000000000000000000000000000000000000000000000800000000000000000200000000000000000000004004000000000000000000000000800000000000000000000000000000000000000000000000000000000000000000000000800000000000000000000000000000000000000400000000000800000000000000000000000020000000000000000000000000000000000000000000000000000000000000000800000000000000000000000000000000000000000000000000000000000000010000000000000000000000000000000000000000000000000000000000000",
      "type": "0x2",
      "transactionHash": "0x75d8cada774e7a76e2be63ff8ac87e16d6760e846069f4a580d166e3aff3c327",
      "transactionIndex": "0x7",
      "blockHash": "0x21337b43ce3bb26390a6d719d638db3fe9d6a6d5145d48ac30e4e656a800e593",
      "blockNumber": "0xc3598d0",
      "gasUsed": "0x6876",
      "effectiveGasPrice": "0x5f5e100",
      "from": "0x6122db054706cd0ff66301f5afc5d121644d0997",
      "to": "0x5eff990c0a24a5f384119808398d1a64ce4bc537",
      "contractAddress": null,
      "gasUsedForL1": "0x0",
      "l1BlockNumber": "0x8fae34",
      "timeboosted": false
    },
    {
      "status": "0x1",
      "cumulativeGasUsed": "0x152860",
      "logs": [
        {
          "address": "0x000000000022d473030f116ddee9f6b43ac78ba3",
          "topics": [
            "0xda9fa7c1b00402c17d0161b249b1ab8bbec047c5a52207b9c112deffd817036b",
            "0x0000000000000000000000006122db054706cd0ff66301f5afc5d121644d0997",
            "0x0000000000000000000000005eff990c0a24a5f384119808398d1a64ce4bc537",
            "0x000000000000000000000000ac631556d3d4019c95769033b5e719dd77124bac"
          ],
          "data": "0x000000000000000000000000ffffffffffffffffffffffffffffffffffffffff0000000000000000000000000000000000000000000000000000ffffffffffff",
          "blockHash": "0x4ba9ad34feb15343468acfe26c9e8d1454e02f180e7e52343615a224969d639e",
          "blockNumber": "0xc3598da",
          "transactionHash": "0xa1501047e85f897768b52b74503370778fd1da528cfd9c23d189376682ca5fbf",
          "transactionIndex": "0x9",
          "logIndex": "0xd",
          "removed": false
        }
      ],
      "logsBloom": "0x00010000000000000000000000000000000000000000000000000000000000000000000000000000100000000000100000000000000000000000000000080000000000000020000000000000000000000000000004000000000000000000000000000000000000000000000000000000000000000000000000000800000000000020000000000000000000000000400000000000000200000000000000000000000000000000000000000000000000000000000000000000000000080000000000800000000000000000010000000000000000000000000040000000000000000000000000000000000000000000000000000000000000000000000000000400",
      "type": "0x2",
      "transactionHash": "0xa1501047e85f897768b52b74503370778fd1da528cfd9c23d189376682ca5fbf",
      "transactionIndex": "0x9",
      "blockHash": "0x4ba9ad34feb15343468acfe26c9e8d1454e02f180e7e52343615a224969d639e",
      "blockNumber": "0xc3598da",
      "gasUsed": "0x77fe",
      "effectiveGasPrice": "0x5f5e100",
      "from": "0x6122db054706cd0ff66301f5afc5d121644d0997",
      "to": "0x000000000022d473030f116ddee9f6b43ac78ba3",
      "contractAddress": null,
      "gasUsedForL1": "0x0",
      "l1BlockNumber": "0x8fae34",
      "timeboosted": false
    },
    {
      "status": "0x1",
      "cumulativeGasUsed": "0xaf75f",
      "logs": [
        {
          "address": "0x65edc65510ae691bb4f2bed5283a004e4ebd8ee3",
          "topics": [
            "0x8c5be1e5ebec7d5bd14f71427d1e84f3dd0314c0f7b2291e5b200ac8c7c3b925",
            "0x0000000000000000000000006122db054706cd0ff66301f5afc5d121644d0997",
            "0x000000000000000000000000000000000022d473030f116ddee9f6b43ac78ba3"
          ],
          "data": "0xffffffffffffffffffffffffffffffffffffffffffffffffffffffffffffffff",
          "blockHash": "0x380ed8ef1d46148723b934e38c1a016d156e6d3d29ce85666615063ce10cc7f5",
          "blockNumber": "0xc3598dc",
          "transactionHash": "0xb8f9fba2629200de8243f88644b11f0f5e83cfff6f6c8553870712e976ecb057",
          "transactionIndex": "0x7",
          "logIndex": "0x9",
          "removed": false
        }
      ],
      "logsBloom": "0x00000000000000000000000000000000000000000000000000000000000000000000000000000000200000000000000000000000800000000000000000200000000000000000000000004000000000000000000000000800000000000000000000000000000000000000000000000000000000000000000000000800000000000000000000000000000000000000400000000000000000000000000000000000020000000000000000000000000000000000000000000000000000000000000000800000000000000000000000000000000000000000000000000000000000000010000000000000000002000000000200000000000000000000000000000000",
      "type": "0x2",
      "transactionHash": "0xb8f9fba2629200de8243f88644b11f0f5e83cfff6f6c8553870712e976ecb057",
      "transactionIndex": "0x7",
      "blockHash": "0x380ed8ef1d46148723b934e38c1a016d156e6d3d29ce85666615063ce10cc7f5",
      "blockNumber": "0xc3598dc",
      "gasUsed": "0x6876",
      "effectiveGasPrice": "0x5f5e100",
      "from": "0x6122db054706cd0ff66301f5afc5d121644d0997",
      "to": "0x65edc65510ae691bb4f2bed5283a004e4ebd8ee3",
      "contractAddress": null,
      "gasUsedForL1": "0x0",
      "l1BlockNumber": "0x8fae34",
      "timeboosted": false
    },
    {
      "status": "0x1",
      "cumulativeGasUsed": "0x11dd61",
      "logs": [
        {
          "address": "0x000000000022d473030f116ddee9f6b43ac78ba3",
          "topics": [
            "0xda9fa7c1b00402c17d0161b249b1ab8bbec047c5a52207b9c112deffd817036b",
            "0x0000000000000000000000006122db054706cd0ff66301f5afc5d121644d0997",
            "0x00000000000000000000000065edc65510ae691bb4f2bed5283a004e4ebd8ee3",
            "0x000000000000000000000000ac631556d3d4019c95769033b5e719dd77124bac"
          ],
          "data": "0x000000000000000000000000ffffffffffffffffffffffffffffffffffffffff0000000000000000000000000000000000000000000000000000ffffffffffff",
          "blockHash": "0xaff3290298439ce358c368687b6591a715b9cab2e3c6fd5d0fbad3ee9959e23a",
          "blockNumber": "0xc3598de",
          "transactionHash": "0x1698718b8fd0ccbc3454af316cef08f552ce881e5cb9cf9798d90d2a81a12419",
          "transactionIndex": "0x6",
          "logIndex": "0x7",
          "removed": false
        }
      ],
      "logsBloom": "0x00010000000000000000000000000000000000000000000000000000000000000000000000000000100000000000000000002000000000000000000000080000000000000020000000000000000000000000000000000000000000000000000000000000010000000000000000000000000000000000000000000800000000000020000000000000000000000400400000000000000000000000000000000000000000000000000000000000000000000000000000000000000000080000000000800000000000000000010000000000000000000000000040000000000000000000000000000000000000000000000000000000000000000000000000000400",
      "type": "0x2",
      "transactionHash": "0x1698718b8fd0ccbc3454af316cef08f552ce881e5cb9cf9798d90d2a81a12419",
      "transactionIndex": "0x6",
      "blockHash": "0xaff3290298439ce358c368687b6591a715b9cab2e3c6fd5d0fbad3ee9959e23a",
      "blockNumber": "0xc3598de",
      "gasUsed": "0x77f2",
      "effectiveGasPrice": "0x5f5e100",
      "from": "0x6122db054706cd0ff66301f5afc5d121644d0997",
      "to": "0x000000000022d473030f116ddee9f6b43ac78ba3",
      "contractAddress": null,
      "gasUsedForL1": "0x0",
      "l1BlockNumber": "0x8fae34",
      "timeboosted": false
    },
    {
      "status": "0x1",
      "cumulativeGasUsed": "0x2417f3",
      "logs": [
        {
          "address": "0xfb3e0c6f74eb1a21cc1da29aec80d2dfe6c9a317",
          "topics": [
            "0xdd466e674ea557f56295e2d0218a125ea4b4f0f6f3307b95f85e6110838d6438",
            "0xba72881722883d9a6cb0792325e1fe5b75da2b55c81f87b2d858fe78d68230c4",
            "0x0000000000000000000000005eff990c0a24a5f384119808398d1a64ce4bc537",
            "0x00000000000000000000000065edc65510ae691bb4f2bed5283a004e4ebd8ee3"
          ],
          "data": "0x0000000000000000000000000000000000000000000000000000000000000bb8000000000000000000000000000000000000000000000000000000000000003c000000000000000000000000000000000000000000000000000000000000000000000000000000000000000000000000000000010000000000000000000000000000000000000000000000000000000000000000000000000000000000000000",
          "blockHash": "0xca75386cad05a16c162030d2d3bb510e690de9921abd5772283820d7c5487026",
          "blockNumber": "0xc3598e0",
          "transactionHash": "0xb85e36003af4fee146e37aec62a8daae99a6089a465993a8257fd4007f3acafb",
          "transactionIndex": "0xb",
          "logIndex": "0x1d",
          "removed": false
        },
        {
          "address": "0xac631556d3d4019c95769033b5e719dd77124bac",
          "topics": [
            "0xddf252ad1be2c89b69c2b068fc378daa952ba7f163c4a11628f55a4df523b3ef",
            "0x0000000000000000000000000000000000000000000000000000000000000000",
            "0x0000000000000000000000006122db054706cd0ff66301f5afc5d121644d0997",
            "0x0000000000000000000000000000000000000000000000000000000000000067"
          ],
          "data": "0x",
          "blockHash": "0xca75386cad05a16c162030d2d3bb510e690de9921abd5772283820d7c5487026",
          "blockNumber": "0xc3598e0",
          "transactionHash": "0xb85e36003af4fee146e37aec62a8daae99a6089a465993a8257fd4007f3acafb",
          "transactionIndex": "0xb",
          "logIndex": "0x1e",
          "removed": false
        },
        {
          "address": "0xfb3e0c6f74eb1a21cc1da29aec80d2dfe6c9a317",
          "topics": [
            "0xf208f4912782fd25c7f114ca3723a2d5dd6f3bcc3ac8db5af63baa85f711d5ec",
            "0xba72881722883d9a6cb0792325e1fe5b75da2b55c81f87b2d858fe78d68230c4",
            "0x000000000000000000000000ac631556d3d4019c95769033b5e719dd77124bac"
          ],
          "data": "0xffffffffffffffffffffffffffffffffffffffffffffffffffffffffffff5038000000000000000000000000000000000000000000000000000000000000afc80000000000000000000000000000000000000000000000000000000000110e870000000000000000000000000000000000000000000000000000000000000067",
          "blockHash": "0xca75386cad05a16c162030d2d3bb510e690de9921abd5772283820d7c5487026",
          "blockNumber": "0xc3598e0",
          "transactionHash": "0xb85e36003af4fee146e37aec62a8daae99a6089a465993a8257fd4007f3acafb",
          "transactionIndex": "0xb",
          "logIndex": "0x1f",
          "removed": false
        },
        {
          "address": "0x5eff990c0a24a5f384119808398d1a64ce4bc537",
          "topics": [
            "0xddf252ad1be2c89b69c2b068fc378daa952ba7f163c4a11628f55a4df523b3ef",
            "0x0000000000000000000000006122db054706cd0ff66301f5afc5d121644d0997",
            "0x000000000000000000000000fb3e0c6f74eb1a21cc1da29aec80d2dfe6c9a317"
          ],
          "data": "0x00000000000000000000000000000000000000000000000000000000000f4240",
          "blockHash": "0xca75386cad05a16c162030d2d3bb510e690de9921abd5772283820d7c5487026",
          "blockNumber": "0xc3598e0",
          "transactionHash": "0xb85e36003af4fee146e37aec62a8daae99a6089a465993a8257fd4007f3acafb",
          "transactionIndex": "0xb",
          "logIndex": "0x20",
          "removed": false
        },
        {
          "address": "0x65edc65510ae691bb4f2bed5283a004e4ebd8ee3",
          "topics": [
            "0xddf252ad1be2c89b69c2b068fc378daa952ba7f163c4a11628f55a4df523b3ef",
            "0x0000000000000000000000006122db054706cd0ff66301f5afc5d121644d0997",
            "0x000000000000000000000000fb3e0c6f74eb1a21cc1da29aec80d2dfe6c9a317"
          ],
          "data": "0x00000000000000000000000000000000000000000000000000000000000f4240",
          "blockHash": "0xca75386cad05a16c162030d2d3bb510e690de9921abd5772283820d7c5487026",
          "blockNumber": "0xc3598e0",
          "transactionHash": "0xb85e36003af4fee146e37aec62a8daae99a6089a465993a8257fd4007f3acafb",
          "transactionIndex": "0xb",
          "logIndex": "0x21",
          "removed": false
        }
      ],
      "logsBloom": "0x00000048000000000001000000000088000000000020100000000000000000000000000000000000320040000000100000002000000000000000000000000040000000000020000004000008000000000000000004000000000000000000100000000000030400000000000000000800000000080000000000000810000000000000000001000008000000000400400000000001800200000000000000200000000004200000000000000000000000000000000000000000000000000000000000800002000000000000010000000000000000000000000000000000000020000000000000000000400002000000000204000000000000000000000000000004",
      "type": "0x2",
      "transactionHash": "0xb85e36003af4fee146e37aec62a8daae99a6089a465993a8257fd4007f3acafb",
      "transactionIndex": "0xb",
      "blockHash": "0xca75386cad05a16c162030d2d3bb510e690de9921abd5772283820d7c5487026",
      "blockNumber": "0xc3598e0",
      "gasUsed": "0x71e81",
      "effectiveGasPrice": "0x5f5e100",
      "from": "0x6122db054706cd0ff66301f5afc5d121644d0997",
      "to": "0xac631556d3d4019c95769033b5e719dd77124bac",
      "contractAddress": null,
      "gasUsedForL1": "0x0",
      "l1BlockNumber": "0x8fae34",
      "timeboosted": false
    }
  ],
  "libraries": [],
  "pending": [],
  "returns": {},
  "timestamp": 1760521057,
  "chain": 421614,
  "commit": "de4281e"
}